:020000040800F2
:1000000000500020014300085143000851430008FC
:10001000514300085143000851430008000000000C
:100020000000000000000000000000005143000834
:10003000514300080000000051430008B53B000890
:100040005143000851430008514300085143000840
:100050005143000851430008D1320008F53200082E
:10006000193300083D33000861330008514300088C
:100070005143000851430008514300085143000810
:100080005143000851430008514300085143000800
:1000900051430008514300085143000885330008CC
:1000A00051430008514300085143000851430008E0
:1000B00051430008514300085143000851430008D0
:1000C00051430008514300085143000851430008C0
:1000D00051430008E93F0008FD3F000811400008B7
:1000E0003534000851430008000000005143000867
:1000F0005143000851430008514300085143000890
:10010000514300085143000851430008514300087F
:10011000514300085143000851430008514300086F
:10012000514300085143000851430008514300085F
:1001300010B5054C237833B9044B13B10448AFF321
:1001400000800123237010BDF0010020000000009A
:100150004C7C000808B5034B1BB103490348AFF3BF
:10016000008008BD00000000F40100204C7C000865
:1001700010F8012B11F8013B012A28BF9A42F7D051
:10018000D01A7047034613F8012B002AFBD1181A26
:100190000138704781F0004102E000BF83F0004366
:1001A00030B54FEA41044FEA430594EA050F08BF12
:1001B00090EA020F1FBF54EA000C55EA020C7FEAD6
:1001C000645C7FEA655C00F0E2804FEA5454D4EB53
:1001D0005555B8BF6D420CDD2C4480EA020281EA1D
:1001E000030382EA000083EA010180EA020281EA55
:1001F0000303362D88BF30BD11F0004F4FEA0131A7
:100200004FF4801C4CEA113102D0404261EB4101B5
:1002100013F0004F4FEA03334CEA133302D052423B
:1002200063EB430394EA050F00F0A780A4F10104F7
:10023000D5F1200E0DDB02FA0EFC22FA05F2801831
:1002400041F1000103FA0EF2801843FA05F3594117
:100250000EE0A5F120050EF1200E012A03FA0EFC96
:1002600028BF4CF0020C43FA05F3C01851EBE371C0
:1002700001F0004507D54FF0000EDCF1000C7EEBDD
:1002800000006EEB0101B1F5801F1BD3B1F5001F1B
:100290000CD349085FEA30004FEA3C0C04F101043A
:1002A0004FEA445212F5800F80F09A80BCF1004F63
:1002B00008BF5FEA500C50F1000041EB045141EAE5
:1002C000050130BD5FEA4C0C404141EB0101013CAE
:1002D00028BFB1F5801FE9D291F0000F04BF01469D
:1002E0000020B1FA81F308BF2033A3F10B03B3F16F
:1002F00020020CDA0C3208DD02F1140CC2F10C02FF
:1003000001FA0CF021FA02F10CE002F11402D8BF5C
:10031000C2F1200C01FA02F120FA0CFCDCBF41EA28
:100320000C019040E41AA2BF01EB0451294330BDF7
:100330006FEA04041F3C1CDA0C340EDC04F11404D4
:10034000C4F1200220FA04F001FA02F340EA0300AB
:1003500021FA04F345EA030130BDC4F10C04C4F1F1
:10036000200220FA02F001FA04F340EA03002946D1
:1003700030BD21FA04F0294630BD94F0000F83F41B
:10038000801306BF81F480110134013D4EE77FEAFE
:10039000645C18BF7FEA655C29D094EA050F08BF4A
:1003A00090EA020F05D054EA000C04BF194610462B
:1003B00030BD91EA030F1EBF0021002030BD5FEA6F
:1003C000545C05D14000494128BF41F0004130BD97
:1003D00014F580043CBF01F5801130BD01F00045EB
:1003E00045F0FE4141F470014FF0000030BD7FEA5E
:1003F000645C1ABF194610467FEA655C1CBF0B4659
:10040000024650EA013406BF52EA033591EA030F6F
:1004100041F4002130BD00BF90F0000F04BF002167
:10042000704730B54FF4806404F132044FF000059A
:100430004FF0000150E700BF90F0000F04BF002113
:10044000704730B54FF4806404F1320410F0004579
:1004500048BF40424FF000013EE700BF42004FEA74
:10046000E2014FEA31014FEA02701FBF12F07F43F1
:1004700093F07F4F81F06051704732F07F4208BFA8
:10048000704793F07F4F04BF41F40021704730B5AF
:100490004FF4607401F0004521F000411CE700BFFB
:1004A00050EA010208BF704730B54FF000050AE07E
:1004B00050EA010208BF704730B511F0004502D57F
:1004C000404261EB41014FF4806404F132045FEA81
:1004D000915C3FF4D8AE4FF003025FEADC0C18BF2A
:1004E00003325FEADC0C18BF033202EBDC02C2F11C
:1004F000200300FA03FC20FA02F001FA03FE40EAAE
:100500000E0021FA02F11444BDE600BF70B54FF0B1
:10051000FF0C4CF4E06C1CEA11541DBF1CEA13558F
:1005200094EA0C0F95EA0C0F00F0DEF82C4481EAF7
:10053000030621EA4C5123EA4C5350EA013518BF17
:1005400052EA033541F4801143F4801338D0A0FB04
:1005500002CE4FF00005E1FB02E506F00042E0FBB1
:1005600003E54FF00006E1FB03569CF0000F18BFB7
:100570004EF0010EA4F1FF04B6F5007F64F540745F
:1005800004D25FEA4E0E6D4146EB060642EAC621F2
:1005900041EA55514FEAC52040EA5E504FEACE2E5F
:1005A000B4F1FD0C88BFBCF5E06F1ED8BEF1004F62
:1005B00008BF5FEA500E50F1000041EB045170BDDE
:1005C00006F0004646EA010140EA020081EA030122
:1005D000B4EB5C04C2BFD4EB0C0541EA045170BD1E
:1005E00041F480114FF0000E013C00F3AB8014F198
:1005F000360FDEBF002001F0004170BDC4F10004E1
:10060000203C35DA0C341BDC04F11404C4F1200561
:1006100000FA05F320FA04F001FA05F240EA0200BC
:1006200001F0004221F0004110EBD37021FA04F6F2
:1006300042EB06015EEA430E08BF20EAD37070BDAC
:10064000C4F10C04C4F1200500FA04F320FA05F00B
:1006500001FA04F240EA020001F0004110EBD3700D
:1006600041F100015EEA430E08BF20EAD37070BD7D
:10067000C4F1200500FA05F24EEA020E20FA04F356
:1006800001FA05F243EA020321FA04F001F0004105
:1006900021FA04F220EA020000EBD3705EEA430E76
:1006A00008BF20EAD37070BD94F0000F0FD101F0A5
:1006B0000046400041EB010111F4801F08BF013CDE
:1006C000F7D041EA060195F0000F18BF704703F01C
:1006D0000046520043EB030313F4801F08BF013DA3
:1006E000F7D043EA0603704794EA0C0F0CEA13555F
:1006F00018BF95EA0C0F0CD050EA410618BF52EA19
:100700004306D1D181EA030101F000414FF000001E
:1007100070BD50EA410606BF1046194652EA43062C
:1007200019D094EA0C0F02D150EA013613D195EAA0
:100730000C0F05D152EA03361CBF104619460AD1E8
:1007400081EA030101F0004141F0FE4141F47001F2
:100750004FF0000070BD41F0FE4141F4780170BDE2
:1007600070B54FF0FF0C4CF4E06C1CEA11541DBF47
:100770001CEA135594EA0C0F95EA0C0F00F0A7F849
:10078000A4EB050481EA030E52EA03354FEA013176
:1007900000F088804FEA03334FF0805545EA131389
:1007A00043EA12634FEA022245EA111545EA106551
:1007B0004FEA00260EF000419D4208BF964244F1E8
:1007C000FD0404F5407402D25B084FEA3202B61A07
:1007D00065EB03055B084FEA32024FF480104FF4DB
:1007E000002CB6EB020E75EB030E22BFB61A75464F
:1007F00040EA0C005B084FEA3202B6EB020E75EBE2
:10080000030E22BFB61A754640EA5C005B084FEA49
:100810003202B6EB020E75EB030E22BFB61A754616
:1008200040EA9C005B084FEA3202B6EB020E75EB21
:10083000030E22BFB61A754640EADC0055EA060EE2
:1008400018D04FEA051545EA16754FEA06164FEA25
:10085000C30343EA52734FEAC2025FEA1C1CC0D1D1
:1008600011F4801F0BD141EA00014FF000004FF05E
:10087000004CB6E711F4801F04BF01430020B4F11F
:10088000FD0C88BFBCF5E06F3FF6AFAEB5EB030CD7
:1008900004BFB6EB020C5FEA500C50F1000041EBD4
:1008A000045170BD0EF0004E4EEA113114EB5C04A1
:1008B000C2BFD4EB0C0541EA045170BD41F4801174
:1008C0004FF0000E013C90E645EA060E8DE60CEA7C
:1008D000135594EA0C0F08BF95EA0C0F3FF43BAF99
:1008E00094EA0C0F0AD150EA01347FF434AF95EA50
:1008F0000C0F7FF425AF104619462CE795EA0C0F34
:1009000006D152EA03353FF4FDAE1046194622E700
:1009100050EA410618BF52EA43067FF4C5AE50EADA
:1009200041047FF40DAF52EA43057FF4EBAE12E7CA
:100930004FF0FF3C06E000BF4FF0010C02E000BFAB
:100940004FF0010C4DF804CD4FEA410C7FEA6C5C8E
:100950004FEA430C18BF7FEA6C5C1BD001B050EA31
:10096000410C0CBF52EA430C91EA030F02BF90EA1C
:10097000020F0020704710F1000F91EA030F58BFDB
:10098000994208BF90422CBFD8176FEAE37040F03D
:10099000010070474FEA410C7FEA6C5C02D150EADB
:1009A000013C07D14FEA430C7FEA6C5CD6D152EA96
:1009B000033CD3D05DF8040B704700BF844610465B
:1009C00062468C461946634600E000BF01B5FFF75A
:1009D000B7FF002848BF10F1000F01BD4DF808ED2A
:1009E000FFF7F4FF0CBF012000205DF808FB00BFFB
:1009F0004DF808EDFFF7EAFF34BF012000205DF855
:100A000008FB00BF4DF808EDFFF7E0FF94BF0120A1
:100A100000205DF808FB00BF4DF808EDFFF7CEFFA2
:100A200094BF012000205DF808FB00BF4DF808EDE1
:100A3000FFF7C4FF34BF012000205DF808FB00BFB2
:100A40004FEA410C7FEA6C5C02D150EA013C0AD1CA
:100A50004FEA430C7FEA6C5C02D152EA033C02D1BC
:100A60004FF0000070474FF0010070474FEA41021D
:100A700012F5001215D211D56FF47873B3EB6252F0
:100A800012D94FEAC12343F0004343EA505311F017
:100A9000004F23FA02F018BF404270474FF00000A9
:100AA000704750EA013005D111F0004008BF6FF0E7
:100AB000004070474FF00000704700BF4A0011D25D
:100AC00012F5001211D20DD56FF47873B3EB6252A8
:100AD0000ED44FEAC12343F0004343EA505323FAB4
:100AE00002F070474FF00000704750EA013002D129
:100AF0004FF0FF3070474FF00000704738B50022CC
:100B0000002304460D46FFF773FF28B92046294607
:100B1000BDE8384000F00AB8204605F1004100F079
:100B200005F8404261EB410138BD00BFD0B500225D
:100B30000B4B06460F46FFF7E9FCFFF7BFFF0446E5
:100B4000FFF76AFC0022074BFFF7E0FC02460B466A
:100B500030463946FFF722FBFFF7B0FF2146D0BDF4
:100B60000000F03D0000F04180B582B000AF786039
:100B7000034802F013FA00BF0837BD4680BD00BF2E
:100B80000024014080B582B000AF78600B46FB7056
:100B9000FB781946786802F02FFA034618460837A2
:100BA000BD4680BD80B582B000AF7860786802F045
:100BB000F5F900BF0837BD4680BD000080B584B0A0
:100BC00000AF78600B46FB70FB781946786802F03E
:100BD00013FA0346FB81FA8913469B0013445A011A
:100BE0001344064A82FB03121A44D212DB17D31AAB
:100BF000BB81BB8918461037BD4680BD8100088087
:100C000080B586B000AF78607B685B68802B0CD1C4
:100C10002648FFF7C7FF264A07F11003126811465E
:100C200019800233120C1A7029E07B685B68502B24
:100C300015D10423BB730823BB810123FB7307F188
:100C40000C0319461B4802F02BFD1B4A07F1100349
:100C50001268114619800233120C1A700FE07B687B
:100C60005B68812B0BD11148FFF77EFF104A07F11B
:100C700010031268114619800233120C1A707B6837
:100C80005B681A460D490E4804F0A6FB07F11003F5
:100C90000C4A0B49184600F03BF9786179690A481B
:100CA00003F04CF900BF1837BD4680BD0024014059
:100CB000687C0008000801406C7C0008707C00081B
:100CC0000C020020787C00080038014080B483B01A
:100CD00000AF78607B685B68802B02D07B685B68C4
:100CE000502B00BF0C37BD4680BC704780B582B02A
:100CF00000AF78600B46FB707B685B68502B08D1B7
:100D0000FB781A460821054800F080F87B68FA78DD
:100D10001A7000BF0837BD4680BD00BF0008014003
:100D200080B584B000AF78607B685B68502B11D1D0
:100D30007B685B681A460949094804F04DFB7B68EB
:100D40001A460749074800F0E3F8F860F9680648D2
:100D500003F0F4F800BF1037BD4680BD707C00087A
:100D60000C0200206C7C00080038014080B483B085
:100D700000AF786039607B683A689A6000BF0C37D2
:100D8000BD4680BC7047000080B584B000AF78607D
:100D90007B689B68184602F0CDFE7B685B68802B01
:100DA00007D101211448FFF709FF0346DBB2FB72AC
:100DB0000AE07B685B68812B06D103210E48FFF7B0
:100DC000E1FE0346DBB2FB727B685B681A460B49A7
:100DD0000B4804F001FB07F10B031A4608490948C8
:100DE00000F096F8F860F968074803F0A7F800BF2C
:100DF0001037BD4680BD00BF00240140707C000854
:100E00000C020020687C00080038014080B582B0E8
:100E100000AF78600B467B8013467B707A787B88C6
:100E20001946786802F0B8FC00BF0837BD4680BD9F
:100E3000B0B590B000AF78603960386801F054F90F
:100E4000F86307F10C0324220021184604F053FB39
:100E5000FB6B002B0AD17B681D4607F10C040FCCFD
:100E60000FC50FCC0FC523682B6047E02549F86BF1
:100E700001F06EFFB863B86B02F07AF80346002BFE
:100E800007D0BB6B196907F10C030F22184604F059
:100E90004CFB1D49F86B01F05BFF7863786B02F047
:100EA00067F80346002B08D07B6B1B6910220021DA
:100EB000184604F0C5F90346FB611449F86B01F0CC
:100EC00047FF3863386B02F053F80346002B08D015
:100ED0003B6B196907F10C0314330F22184604F019
:100EE00024FBF86B00F0E8F87B681D4607F10C0462
:100EF0000FCC0FC50FCC0FC523682B607868403727
:100F0000BD46B0BD807C0008887C0008907C00084D
:100F100080B586B000AFF860B9607A6002F014F86E
:100F20007861FA680C49786901F0C6FFBA680B4924
:100F3000786901F0C1FF7A680949786901F0BCFF5E
:100F4000786901F069F93861786900F0B5F83B69B2
:100F500018461837BD4680BD807C0008887C000894
:100F6000907C000880B485B000AF786039607B6801
:100F7000002B02D03B68002B01D1012356E07A6898
:100F80003B689A420DD1002350E07B681B78002B10
:100F900001D100234AE07B6801337B603B68013369
:100FA0003B607B681B78FB73FB7B0133224A134455
:100FB0001B7803F00303012B03D1FB7B03F1200219
:100FC00000E0FA7B3B681B78BB73BB7B01331A499B
:100FD0000B441B7803F00303012B02D1BB7B2033AE
:100FE00000E0BB7B9A42D0D07B681B787B737B7B15
:100FF0000133114A13441B7803F00303012B03D17F
:101000007B7B03F1200200E07A7B3B681B783B731B
:101010003B7B013308490B441B7803F00303012B8E
:1010200002D13B7B203300E03B7BD31A18461437B8
:10103000BD4680BC704700BF707D000880B584B09D
:1010400000AF786039600023FB600023BB607B68E1
:10105000002B01D1002315E07868FFF793F80346D1
:101060000133FB603B681B68F8689847B860BB6851
:10107000002B01D1002305E0FA687968B86804F014
:10108000EAFABB6818461037BD4680BD80B584B00B
:1010900000AF78607B681B6828209847F860FB6881
:1010A000002B04D028220021F86804F024FAFB6801
:1010B00018461037BD4680BD80B584B000AF78605B
:1010C0000023FB603DE07B681B68FB607B68DB689E
:1010D00003F48073002B08D17B689B68002B04D03D
:1010E0007B689B681846FFF7E7FF7B68DB6803F4C3
:1010F0008073002B0CD17B681B69002B08D0154B2B
:101100005B687A681269104698477B6800221A610A
:101110007B68DB6803F40073002B0CD17B681B6ACF
:10112000002B08D00B4B5B687A68126A1046984710
:101130007B6800221A62074B5B6878689847FB68F7
:101140007B607B68002BBED100BF00BF1037BD465F
:1011500080BD00BF0000002080B400AF2E231846E1
:10116000BD4680BC7047000080B598B000AF786085
:1011700039604FF000024FF00003C7E91423002349
:10118000BB64FFF7E9FF034687F84F300023FB6598
:101190003B68002B03D03B681B68002B01D1002368
:1011A000A0E00023FB653DE03B681A683B68996856
:1011B000FB6D0B4413441B78452B17DC2B2B40DBBA
:1011C0002B3B01229A404C4B1340002B14BF0123B0
:1011D0000023DBB2002B0BD102F00803002B14BF5D
:1011E00001230023DBB2002B11D12AE0652B28D18B
:1011F0003B681A683B689968FB6D0B441344197887
:1012000007F10802FB6D13440A461A7007E007F164
:101210000802FB6D134497F84F201A7000BFFB6D56
:101220000133FB65FB6D3E2B0DD83B68002B0AD0CC
:101230003B689A68FB6D1A443B685B689A42B3D37B
:1012400001E000BF00E000BF07F10802FB6D13449E
:1012500000221A7007F1480207F1080311461846E8
:1012600003F066FFC7E91401BA6C07F108039A425C
:1012700001D1002336E07968D7E91423C1E90623B8
:101280001BA3D3E90023D7E91401FFF7C5FB0346ED
:10129000002B04D07B686FF000425A6115E04FF0DC
:1012A0000002164BD7E91401FFF7ACFB0346002BF5
:1012B00004D07B684FF000425A6106E0D7E9140180
:1012C000FFF7D4FB02467B685A617B680822DA602C
:1012D0003B689B68B96C07F108028A1A1A443B689C
:1012E0009A60012318466037BD4680BDAFF3008089
:1012F0000000C0FFFFFFDF41E57F00040000E0C108
:1013000080B584B000AF786039600023FB600023B3
:10131000BB607B68002B03D07B681B68002B01D16E
:10132000002383E07B685B68002B07D07B689A68AA
:101330007B685B689A4201D3002377E03B68002B0F
:1013400001DA002372E07B689A683B68134401333A
:101350003B607B685B683A689A4205D87B681A688C
:101360007B689B68134461E07B681B69002B01D09C
:1013700000235BE03B68B3F1804F08D33B68002B50
:1013800003DB6FF00043BB6004E000234EE03B68EA
:101390005B00BB607B681B6A002B18D07B681B6AF4
:1013A0007A681268B96810469847F860FB68002BA5
:1013B00032D17B68DB697A681268104698477B688F
:1013C00000225A607B6800221A6000232EE07B68AE
:1013D0009B69B8689847F860FB68002B0DD17B6863
:1013E000DB697A681268104698477B6800225A6069
:1013F0007B6800221A60002318E07B6819687B680C
:101400009B6801331A46F86804F025F97B68DB69AC
:101410007A681268104698477B68BA685A607B6899
:10142000FA681A607B689B68FA681344184610379C
:10143000BD4680BD90B585B000AF78600023FB60ED
:101440007B68002B13D07B681B68002B0FD07B6858
:101450001A687B689B681344FB607B689C68F8682B
:10146000FEF790FE0346E2187B689A6000E000BF3A
:101470001437BD4690BD00002DE9B0438AB000AFDF
:10148000C7E90601C7E90423BB69BB60FB6923F018
:101490000043FB603B693B607B6923F000437B605A
:1014A000D7E90023D7E90201FFF7C0FA0346002B72
:1014B00004D0BC69FB6923F0004503E03C697B690B
:1014C00023F00045C7E90845D7E90423D7E9060119
:1014D000FEF764FE02460B46904623F000494FF0AB
:1014E00000020C4BD7E90801FFF710F802460B4643
:1014F00001210C4640464946FFF784FA0346002B7B
:1015000001D100231C46E3B218462837BD46BDE88A
:10151000B08300BF0000B03CF0B593B000AF78607E
:1015200039600023FB637B68D3E90623C7E90C23FA
:1015300000237B6400233B6400237B6107F11803D5
:1015400000221A605A609A60DA601A619A82FFF784
:1015500003FE034687F82F304FF000024FF00003E0
:10156000C7E902233B68002B01D10023B0E0D7E993
:101570000C23D7E90C01FFF763FA0346002B21D1B6
:101580003C6B7B6B23F0004501231E464FF0FF327E
:10159000514B20462946FFF753FA0346002B0BD147
:1015A0004FF0FF324C4B20462946FFF72BFA0346FB
:1015B000002B01D100231E46F3B283F00103DBB2FE
:1015C000002B07D007F114034449184603F004FF29
:1015D00078643BE07B685B691846FEF72DFF0246A6
:1015E0000B46D7E90C01FFF7F9F90346002B09D0A8
:1015F0007B685A6907F114033949184603F0ECFE79
:10160000786423E007F11400D7E90C23354903F08F
:10161000E3FE786407F1080207F114033249184623
:1016200003F0FAFE0346012B08D1D7E90201D7E9FE
:101630000C23FFF721FF0346002B07D107F114000D
:10164000D7E90C23294903F0C7FE78647B6C002B93
:1016500002DB7B6C192B01DD002339E07B6C01334D
:1016600019463868FFF74CFEF863FB6B002B01D17D
:1016700000232DE000233B641AE007F114023B6CC9
:1016800013441B7897F82F209A4205D1FA6B3B6CD4
:1016900013442E221A7008E0FA6B3B6C134407F1D6
:1016A00014013A6C0A4412781A703B6C01333B64A3
:1016B0007B6C3A6C9A42E0D3FA6B3B6C1344002289
:1016C0001A703B689A687B6C1A443B689A600123E5
:1016D00018464C37BD46F0BDFFFFEF7FA47C0008E5
:1016E000AC7C0008B07C0008B87C0008BC7C00081A
:1016F00080B485B000AF78600023FB600023BB603E
:101700000023BB604CE07A68BB6813441B782F2B26
:101710000FD97A68BB6813441B78392B09D87A68CB
:10172000BB6813441B781A46FB681344303BFB60CC
:101730002DE07A68BB6813441B78402B0FD97A6878
:10174000BB6813441B78462B09D87A68BB681344DE
:101750001B781A46FB681344373BFB6017E07A6836
:10176000BB6813441B78602B0FD97A68BB6813449D
:101770001B78662B09D87A68BB6813441B781A4615
:10178000FB681344573BFB6001E000230CE0BB689F
:10179000022B02D8FB681B01FB60BB680133BB60F6
:1017A000BB68032BAFD9FB6818461437BD4680BC15
:1017B0007047000080B58AB000AFF860B9607A6009
:1017C00000237B620023FB61FB68BB61002387F879
:1017D0002330002387F82230002387F821300023AC
:1017E00087F82030BA68BB69D31A052B40F3B7805D
:1017F000BB6902331846FFF77BFFF861FB69B3F55D
:101800005C4F04D3FB69B3F5604FC0F0AA80FB695D
:10181000B3F5584F37D3FB69B3F55C4F33D2BB698F
:1018200006337B6100233B610C2387F82130BA68C3
:101830007B69D31A052B40F396807B691B785C2B60
:1018400040F093807B6901331B78752B40F08D80CD
:101850007B6902331846FFF74BFF38613B69B3F5EC
:101860005C4FC0F084803B69B3F5604F7FD2FB6969
:101870009A02434B13403A69C2F30902134303F53A
:1018800080337B6204E0062387F82130FB697B62AA
:101890007B6A7F2B03D8012387F823301FE07B6A04
:1018A000B3F5006F06D2022387F82330C02387F8F0
:1018B000203014E07B6AB3F5803F06D2032387F81B
:1018C0002330E02387F8203009E07B6AB3F5881FD6
:1018D0004FD2042387F82330F02387F8203097F87D
:1018E0002330013B87F8223015E07B6ADBB203F03E
:1018F0003F03DAB27B68196897F822300B4462F034
:101900007F02D2B21A707B6A9B097B6297F8223001
:10191000013B87F8223097F82230002BE5D197F869
:101920002330012B09D97B6AD9B27B681B6897F8F1
:1019300020200A43D2B21A7007E07B6ADAB27B68D1
:101940001B6802F07F02D2B21A707B681A6897F89F
:1019500023301A447B681A6097F821300BE000BFEF
:1019600008E000BF06E000BF04E000BF02E000BFE7
:1019700000E000BF002318462837BD4680BD00BFE9
:1019800000FC0F0080B58AB000AF786039603B681A
:101990001A683B689B68013313447B623B681A6892
:1019A0003B689B68013313443B620023FB600023C8
:1019B000FB613B681A683B689B6813441B78222BC9
:1019C00040F0038100233B610023BB6117E03B6AC9
:1019D0001B785C2B10D13B6A5A1C3B681B68D31ADE
:1019E0001A463B685B689A4280F0F180BB6901331C
:1019F000BB613B6A01333B623B6A01333B623B683C
:101A00001B683A6AD31A1A463B685B689A4203D24B
:101A10003B6A1B78222BDAD13B681B683A6AD31ADF
:101A20001A463B685B689A4280F0D3803B6A1B7819
:101A3000222B40F0CE803B681A683B689B681344B9
:101A40003A6AD31A1A46BB69D31A3B613B681B69D1
:101A50003A69013210469847F861FB69002B00F0A3
:101A6000BA80FB69FB6094E07B6A1B785C2B08D032
:101A70007A6A531C7B62FB68591CF96012781A70F1
:101A800087E00223FB753A6A7B6AD31A002B40F386
:101A9000A4807B6A01331B78752B00F3A0805C2B3C
:101AA00004DA222B5CD02F2B5AD098E05C3B192B08
:101AB00000F2958001A252F823F000BF611B0008DC
:101AC000DF1B0008DF1B0008DF1B0008DF1B00080E
:101AD000DF1B0008251B0008DF1B0008DF1B0008B8
:101AE000DF1B0008311B0008DF1B0008DF1B00089C
:101AF000DF1B0008DF1B0008DF1B0008DF1B0008DE
:101B0000DF1B00083D1B0008DF1B0008DF1B00086F
:101B1000DF1B0008491B0008DF1B0008551B0008DD
:101B2000711B0008FB685A1CFA6008221A702CE02E
:101B3000FB685A1CFA600C221A7026E0FB685A1CDB
:101B4000FA600A221A7020E0FB685A1CFA600D2223
:101B50001A701AE0FB685A1CFA6009221A7014E025
:101B60007B6A5A1CFB68591CF96012781A700CE0E9
:101B700007F10C031A46396A786AFFF71BFE034621
:101B8000FB75FB7D002B2CD000BFFB7D7A6A1344D4
:101B90007B627A6A3B6A9A42FFF466AFFB68002276
:101BA0001A707B681022DA607B68FA691A613B68F8
:101BB0001B683A6AD31A1A463B689A603B689B686E
:101BC0005A1C3B689A60012320E000BF0AE000BF76
:101BD00008E000BF06E000BF04E000BF02E000BF75
:101BE00000E000BFFB69002B05D03B685B69F8692A
:101BF00098470023FB617B6A002B06D03B681B687B
:101C00007A6AD31A1A463B689A6000231846283726
:101C1000BD4680BD80B588B000AF786039600023D4
:101C2000FB6100233B610023BB610023FB600023B9
:101C30007B613B68002B01D1002310E17B68002B06
:101C400011D103213868FFF75BFB38613B69002B3A
:101C500001D1002303E13B69834A118892781980FE
:101C60009A700123FBE07B68FB6124E0FB691B7831
:101C7000222B0FDC082B13DB083B7C4A22FA03F3F0
:101C800003F00103002B14BF01230023DBB2002B60
:101C900002D105E05C2B03D17B6901337B6107E056
:101CA000FB691B781F2B02D87B6905337B6100BF62
:101CB000FB690133FB61FB691B78002BD6D1FA6904
:101CC0007B68D31A1A467B691344FB60FB680333B5
:101CD00019463868FFF714FB38613B69002B01D1C6
:101CE0000023BCE07B69002B17D13B6922221A70CC
:101CF0003B690133FA687968184603F0ACFCFB686D
:101D000001333A69134422221A70FB6802333A699C
:101D1000134400221A700123A1E03B6922221A70A9
:101D20003B690133BB617B68FB6186E0FB691B7823
:101D30001F2B0CD9FB691B78222B08D0FB691B7861
:101D40005C2B04D0FB691A78BB691A706FE0BB6921
:101D50005A1CBA615C221A70FB691B78222B3DDC8D
:101D6000082B59DB083B1A2B56D801A252F823F056
:101D7000F11D0008111E0008011E0008191E0008B0
:101D8000F91D0008091E0008191E0008191E000888
:101D9000191E0008191E0008191E0008191E000847
:101DA000191E0008191E0008191E0008191E000837
:101DB000191E0008191E0008191E0008191E000827
:101DC000191E0008191E0008191E0008191E000817
:101DD000191E0008191E0008E91D00085C2B1BD104
:101DE000BB695C221A7022E0BB6922221A701EE0D5
:101DF000BB6962221A701AE0BB6966221A7016E08B
:101E0000BB696E221A7012E0BB6972221A700EE072
:101E1000BB6974221A700AE0FB691B781A461449E0
:101E2000B86903F0D9FABB690433BB6100BFFB6931
:101E30000133FB61BB690133BB61FB691B78002B7C
:101E40007FF474AFFB6801333A69134422221A709D
:101E5000FB6802333A69134400221A7001231846C2
:101E60002037BD4680BD00BFC47C00083700000499
:101E7000C87C000880B582B000AF786039607B68AC
:101E80001B6939681846FFF7C5FE03461846083730
:101E9000BD4680BD80B483B000AF78607B68002B06
:101EA00003D07B681B68002B01D100232CE07B68EA
:101EB000002B05D07B689A687B685B689A4206D3E2
:101EC0007B6821E07B689B685A1C7B689A607B6812
:101ED000002B0DD07B689A687B685B689A4207D2BA
:101EE0007B681A687B689B6813441B78202BE9D9B0
:101EF0007B689A687B685B689A4204D17B689B68C0
:101F00005A1E7B689A607B6818460C37BD4680BCB9
:101F10007047000080B582B000AF78607B68002B0E
:101F200007D07B681B68002B03D07B689B68002B65
:101F300001D000231CE07B68002B18D07B689B68D5
:101F40001A1D7B685B689A4211D27B681A687B68AD
:101F50009B68134403220849184603F0D4FA034649
:101F6000002B04D17B689B68DA1C7B689A607B68D5
:101F700018460837BD4680BDD07C000880B586B0C5
:101F800000AFF860B9607A60FB68002B01D10023D4
:101F90000CE0F868FEF7F6F8034601337B617B68D6
:101FA000BA687969F86800F005F8034618461837EA
:101FB000BD4680BD80B58EB000AFF860B9607A6074
:101FC0003B6007F1180300221A605A609A60DA60D9
:101FD0001A615A619A6100237B63414B00221A60A7
:101FE0003F4B00225A60FB68002B42D0BB68002B9D
:101FF0003FD0FB68BB61BB68FB6100233B62394A91
:1020000007F1280307CA83E807003648FFF73EF8C0
:1020100078637B6B002B2ED007F118031846FFF76F
:1020200079FF03461846FFF735FF03461946786BDC
:1020300000F002F90346002B1FD03B68002B0ED0A6
:1020400007F118031846FFF725FF3A6AFB699A4221
:1020500015D2BA693B6A13441B78002B0FD17B68F9
:10206000002B04D0BA693B6A1A447B681A607B6B08
:1020700031E000BF04E000BF02E000BF00E000BFAD
:102080007B6B002B02D0786BFFF716F8FB68002BF8
:1020900020D0FB683B6100237B613A6AFB699A426E
:1020A00002D23B6A7B6105E0FB69002B02D0FB6931
:1020B000013B7B617B68002B04D03A697B691A4441
:1020C0007B681A60064B1A4607F1100393E8030079
:1020D00082E80300002318463837BD4680BD00BFA4
:1020E000140200200000002080B582B000AF7860AC
:1020F000002200217868FFF741FF034618460837A1
:10210000BD4680BD80B58EB000AFF860B9607A6022
:1021100000237B6307F1100324220021184603F0FB
:10212000EAF97B681B683B4A1268104698470346E9
:102130003B61384B1B687B61BB687B627A6807F147
:10214000280307CA83E807003B69002B42D007F148
:1021500010031946F86800F05BF90346002B3BD0EA
:1021600007F110031846FFF765F97B689B68002BA1
:102170000DD07B689B683869BA690132114698476F
:1021800078637B6B002B29D000233B6120E07B68C8
:102190001B68BA6901321046984778637B6B002B45
:1021A0001ED03969BB695A1C7B69934228BF13460C
:1021B0001A46786B03F04FFABB697A6B134400221E
:1021C0001A707B685B683A691046984700233B6148
:1021D0007B6B1AE000BF04E000BF02E000BF00E03C
:1021E00000BF3B69002B06D07B685B683A691046EC
:1021F000984700233B617B6B002B05D07B685B68B5
:10220000786B984700237B63002318463837BD4618
:1022100080BD00BF087D000880B582B000AF786047
:10222000044A00217868FFF76DFF03461846083717
:10223000BD4680BD0000002080B582B000AF786050
:1022400039603B68002B03D03B681B68002B01D131
:102250000023D2E03B68002B1DD03B689B681A1D11
:102260003B685B689A4216D83B681A683B689B6873
:10227000134404226349184603F045F90346002B32
:1022800009D17B680422DA603B689B681A1D3B68B1
:102290009A600123B1E03B68002B1DD03B689B682E
:1022A0005A1D3B685B689A4216D83B681A683B68BF
:1022B0009B68134405225449184603F024F9034649
:1022C000002B09D17B680122DA603B689B685A1DAC
:1022D0003B689A60012390E03B68002B20D03B686C
:1022E0009B681A1D3B685B689A4219D83B681A685C
:1022F0003B689B68134404224449184603F003F9E1
:102300000346002B0CD17B680222DA607B68012235
:102310005A613B689B681A1D3B689A6001236CE018
:102320003B68002B13D03B689A683B685B689A4215
:102330000DD23B681A683B689B6813441B78222BBC
:1023400005D139687868FFF71DFB034655E03B6807
:10235000002B23D03B689A683B685B689A421DD289
:102360003B681A683B689B6813441B782D2B0FD081
:102370003B681A683B689B6813441B782F2B0DD968
:102380003B681A683B689B6813441B78392B05D857
:1023900039687868FEF7E8FE03462EE03B68002BBC
:1023A00013D03B689A683B685B689A420DD23B68E1
:1023B0001A683B689B6813441B785B2B05D139680E
:1023C000786800F009F9034617E03B68002B13D04A
:1023D0003B689A683B685B689A420DD23B681A6812
:1023E0003B689B6813441B787B2B05D13968786860
:1023F00000F03CFA034600E0002318460837BD46CB
:1024000080BD00BFA47C0008D47C0008DC7C0008F0
:1024100080B584B000AF786039600023FB607B68D2
:10242000002B02D03B68002B01D10023C9E07B6860
:10243000DB68DBB2802B00F08E80802B00F3C08045
:10244000202B49DC002B40F3BB80013B1F2B00F20B
:10245000B78001A252F823F00325000827250008C1
:10246000C1250008DF240008C1250008C125000897
:10247000C12500084B250008C1250008C12500081A
:10248000C1250008C1250008C1250008C125000894
:10249000C12500089D250008C1250008C1250008A8
:1024A000C1250008C1250008C1250008C125000874
:1024B000C1250008C1250008C1250008C125000864
:1024C000C1250008C1250008C1250008C125000854
:1024D000C1250008A9250008402B6BD070E005211C
:1024E0003868FEF70DFFF860FB68002B01D1002370
:1024F00067E0FB68354A1068186012791A71012389
:102500005FE006213868FEF7FBFEF860FB68002BF1
:1025100001D1002355E0FB682D4A106818609288AD
:102520009A8001234DE005213868FEF7E9FEF86046
:10253000FB68002B01D1002343E0FB68254A1068AB
:10254000186012791A7101233BE039687868FEF748
:10255000E3FF034635E00023BB607B681B69002B6B
:1025600001D100232DE07B681B691846FDF70AFEA8
:1025700003460133BB60B9683868FEF7C1FEF860F6
:10258000FB68002B01D100231BE07B681B69BA6844
:102590001946F86803F05FF8012312E0396878689B
:1025A000FFF768FC03460CE03968786800F0D8F85B
:1025B000034606E03968786800F064FA034600E0F4
:1025C000002318461037BD4680BD00BFA47C00081C
:1025D000D47C0008DC7C000880B586B000AF786051
:1025E000396000237B6100233B613B68DB68B3F506
:1025F0007A7F01D30023AFE03B68DB685A1C3B685D
:10260000DA603B681A683B689B6813441B785B2B55
:1026100040F094803B689B685A1C3B689A6038681D
:10262000FFF738FC3B68002B0DD03B689A683B688D
:102630005B689A4207D23B681A683B689B68134400
:102640001B785D2B61D03B68002B05D03B689A68F6
:102650003B685B689A4205D33B689B685A1E3B689F
:102660009A6072E03B689B685A1E3B689A603B68C0
:1026700010331846FEF70AFDF860FB68002B5FD0A8
:102680007B69002B04D1FB687B617B693B6107E0C0
:102690003B69FA681A60FB683A695A60FB683B61FB
:1026A0003B689B685A1C3B689A603868FFF7F2FBEE
:1026B00039683869FFF7C0FD0346002B42D03868FF
:1026C000FFF7E8FB3B68002B0DD03B689A683B683E
:1026D0005B689A4207D23B681A683B689B68134460
:1026E0001B782C2BC3D03B68002B2DD03B689A68FD
:1026F0003B685B689A4227D23B681A683B689B68D4
:1027000013441B785D2B1FD100E000BF3B68DB68E2
:102710005A1E3B68DA607B69002B02D07B693A69FC
:102720005A607B682022DA607B687A699A603B682D
:102730009B685A1C3B689A6001230DE000BF04E0CF
:1027400000BF02E000BF00E000BF7B69002B02D0A9
:102750007869FEF7B1FC002318461837BD4680BDE6
:1027600080B586B000AF7860396000237B610023BC
:10277000FB607B689B683B613B68002B01D10023B9
:1027800070E001213868FEF7BBFD78617B69002BA2
:1027900001D1002366E07B695B221A703B689B686D
:1027A0005A1C3B689A603B68DB685A1C3B68DA60DD
:1027B0003DE039683869FFF72BFE0346002B01D155
:1027C00000234FE03868FEF735FE3B691B68002B9D
:1027D0002AD03B685B69002B01D0022300E0012373
:1027E000FB60FB68013319463868FEF789FD7861A4
:1027F0007B69002B01D1002334E07B695A1C7A618C
:102800002C221A703B685B69002B04D07B695A1C30
:102810007A6120221A707B6900221A703B689A68DC
:10282000FB681A443B689A603B691B683B613B69E3
:10283000002BBED102213868FEF762FD78617B690A
:10284000002B01D100230DE07B695A1C7A615D22C7
:102850001A707B6900221A703B68DB685A1E3B685D
:10286000DA60012318461837BD4680BD80B586B0B2
:1028700000AF7860396000237B6100233B613B68D7
:10288000DB68B3F57A7F01D30023F7E03B68DB68B0
:102890005A1C3B68DA603B68002B00F0DB803B6829
:1028A0009A683B685B689A4280F0D4803B681A68FB
:1028B0003B689B6813441B787B2B40F0CB803B68C4
:1028C0009B685A1C3B689A603868FFF7E3FA3B68DC
:1028D000002B0ED03B689A683B685B689A4208D22E
:1028E0003B681A683B689B6813441B787D2B00F09B
:1028F00098803B68002B05D03B689A683B685B6812
:102900009A4205D33B689B685A1E3B689A60AEE0CA
:102910003B689B685A1E3B689A603B6810331846B8
:10292000FEF7B4FBF860FB68002B00F095807B6934
:10293000002B04D1FB687B617B693B6107E03B694D
:10294000FA681A60FB683A695A60FB683B613B6849
:10295000002B00F083803B689B685A1C3B685B68D7
:102960009A427BD23B689B685A1C3B689A603868E5
:10297000FFF790FA39683869FFF704F80346002B2F
:102980006ED03868FFF786FA3B691A693B691A62AC
:102990003B6900221A613B68002B63D03B689A6850
:1029A0003B685B689A425DD23B681A683B689B68EB
:1029B00013441B783A2B55D13B689B685A1C3B68E3
:1029C0009A603868FFF766FA39683869FFF734FCAF
:1029D0000346002B48D03868FFF75CFA3B68002BB1
:1029E0000DD03B689A683B685B689A4207D23B68A7
:1029F0001A683B689B6813441B782C2B8DD03B686E
:102A0000002B33D03B689A683B685B689A422DD2B2
:102A10003B681A683B689B6813441B787D2B25D163
:102A200000E000BF3B68DB685A1E3B68DA607B69E8
:102A3000002B02D07B693A695A607B684022DA60D9
:102A40007B687A699A603B689B685A1C3B689A600D
:102A5000012313E000BF0AE000BF08E000BF06E06A
:102A600000BF04E000BF02E000BF00E000BF7B69E0
:102A7000002B02D07869FEF71FFB00231846183799
:102A8000BD4680BD80B588B000AF78603960002356
:102A9000FB610023FB607B689B68BB613B68002B8C
:102AA00001D1002308E13B685B69002B01D00223C0
:102AB00000E00123FB60FB68013319463868FEF72C
:102AC0001FFCF861FB69002B01D10023F4E0FB69D6
:102AD0005A1CFA617B221A703B68DB685A1C3B68FF
:102AE000DA603B685B69002B04D0FB695A1CFA6111
:102AF0000A221A703B689A68FB681A443B689A601D
:102B0000A0E03B685B69002B22D03B68DB6819467C
:102B10003868FEF7F5FBF861FB69002B01D1002353
:102B2000CAE000237B6107E0FB695A1CFA610922B5
:102B30001A707B6901337B613B68DB687A699A4272
:102B4000F2D33B689A683B68DB681A443B689A603A
:102B5000BB691B6A39681846FFF75CF80346002B0F
:102B600001D10023A8E03868FEF764FC3B685B698C
:102B7000002B01D0022300E00123FB60F9683868D4
:102B8000FEF7BEFBF861FB69002B01D1002393E047
:102B9000FB695A1CFA613A221A703B685B69002B88
:102BA00004D0FB695A1CFA6109221A703B689A68C2
:102BB000FB681A443B689A603968B869FFF728FCDB
:102BC0000346002B01D1002376E03868FEF732FC83
:102BD0003B685B69002B01D0012200E00022BB6949
:102BE0001B68002B01D0012300E000231344FB608D
:102BF000FB68013319463868FEF782FBF861FB6910
:102C0000002B01D1002357E0BB691B68002B04D0C7
:102C1000FB695A1CFA612C221A703B685B69002B15
:102C200004D0FB695A1CFA610A221A70FB6900225F
:102C30001A703B689A68FB681A443B689A60BB69E3
:102C40001B68BB61BB69002B7FF45BAF3B685B69B2
:102C5000002B03D03B68DB68013300E002231946F8
:102C60003868FEF74DFBF861FB69002B01D10023AA
:102C700022E03B685B69002B10D000233B6107E03A
:102C8000FB695A1CFA6109221A703B6901333B61E6
:102C90003B68DB68013B3A699A42F1D3FB695A1CF5
:102CA000FA617D221A70FB6900221A703B68DB68AA
:102CB0005A1E3B68DA60012318462037BD4680BDA6
:102CC00080B586B000AFF860B9607A6000237B61A0
:102CD000FB68002B02D0BB68002B01D1002333E03E
:102CE000FB689B687B617B68002B17D002E07B69E7
:102CF0001B687B617B69002B1CD07B691B6A002BE6
:102D000018D07B691B6A1946B868FDF731FA03468B
:102D1000002BECD10EE07B691B687B617B69002B8B
:102D200008D07B691B6A1946B868FEF71BF9034691
:102D3000002BF0D17B69002B03D07B691B6A002B31
:102D400001D1002300E07B6918461837BD4680BDDD
:102D500080B582B000AF7860396000223968786849
:102D6000FFF7AEFF034618460837BD4680BD80B466
:102D700083B000AF786039607B683A681A603B685E
:102D80007A685A6000BF0C37BD4680BC704780B57A
:102D900084B000AF786039600023FB603B68002B93
:102DA00006D07B68002B03D07A683B689A4201D139
:102DB00000231EE07B689B68FB60FB68002B09D149
:102DC0007B683A689A603B683A685A603B680022C0
:102DD0001A600DE0FB685B68002B09D0FB685B683C
:102DE00039681846FFF7C3FF7B689B683A685A60EA
:102DF000012318461037BD4680BD80B483B000AFB4
:102E000078607B6818460C37BD4680BC704780B53B
:102E100086B000AFF860B9607A603B6000237B61E8
:102E200000233B61FB68002B09D0BB68002B06D058
:102E30007B68002B03D0FA687B689A4201D100239B
:102E400036E03B6A002B09D0B868FFF7D6FF7861FF
:102E50007B68DB6843F400733B610EE03968B86857
:102E6000FEF7ECF878617B69002B01D100231FE0AD
:102E70007B68DB6823F400733B617B68DB6803F4E9
:102E80000073002B09D17B681B6A002B05D03B68BF
:102E90005B687A68126A104698477B687A691A629A
:102EA0007B683A69DA607968F868FFF770FF034673
:102EB00018461837BD4680BD80B588B002AFF860AF
:102EC000B9607A60786800F019F87861002300939F
:102ED000094B7A69B968F868FFF799FF0346002B38
:102EE00001D07B6903E07869FEF7E6F80023184615
:102EF0001837BD4680BD00BF0000002080B584B0FB
:102F000000AF78600F48FEF7C1F8F860FB68002B4F
:102F100012D0FB681022DA600A497868FEF78EF852
:102F20000246FB681A61FB681B69002B04D1F86834
:102F3000FEF7C2F8002300E0FB6818461037BD46D4
:102F400080BD00BF0000002080B582B000AF074800
:102F5000FEF79CF878607B68002B02D07B684022EB
:102F6000DA607B6818460837BD4680BD0000002047
:102F700080B483B000AF78607B68002B01D1002360
:102F800007E07B68DB68DBB2102B0CBF012300235A
:102F9000DBB218460C37BD4680BC704780B582B0A6
:102FA00000AF78607B68114A934204D10921012067
:102FB00000F086FD10E07B680D4A934204D10A219F
:102FC000012000F07DFD07E07B680A4A934203D1AF
:102FD0000F21012000F074FD7B689B6843F0010223
:102FE0007B689A6000BF0837BD4680BD0024014061
:102FF00000280140003C014080B584B000AF7860FB
:103000000B46FB700023BB73FB78092B1ED97B6832
:10301000D968FB78A3F10A0213465B001344072228
:1030200002FA03F301EA03027B68DA607B68D9687D
:10303000FB78A3F10A0213465B001344032202FA51
:1030400003F341EA03027B68DA6019E07B681969DF
:10305000FA7813465B001344072202FA03F301EAED
:1030600003027B681A617B681969FA7813465B0072
:103070001344032202FA03F341EA03027B681A6154
:10308000FB780F2B00F2F48001A252F823F000BF6E
:10309000D1300008EB300008053100081F3100086E
:1030A00039310008533100086D31000887310008BC
:1030B000A1310008BB310008D5310008EF3100080C
:1030C00009320008233200083D3200085732000858
:1030D0000221012000F0F4FC0123BB8107F10C0365
:1030E0001946784800F0DCFAC2E00221012000F025
:1030F000E7FC0223BB8107F10C031946714800F07D
:10310000CFFAB5E00221012000F0DAFC0423BB81F4
:1031100007F10C0319466B4800F0C2FAA8E002213F
:10312000012000F0CDFC0823BB8107F10C031946F8
:10313000644800F0B5FA9BE00221012000F0C0FCD9
:103140001023BB8107F10C0319465E4800F0A8FA72
:103150008EE00221012000F0B3FC2023BB8107F1A7
:103160000C031946574800F09BFA81E00221012028
:1031700000F0A6FC4023BB8107F10C03194651481F
:1031800000F08EFA74E00221012000F099FC802307
:10319000BB8107F10C0319464A4800F081FA67E049
:1031A0000321012000F08CFC0123BB8107F10C03FB
:1031B0001946454800F074FA5AE00321012000F056
:1031C0007FFC0223BB8107F10C0319463E4800F047
:1031D00067FA4DE00421012000F072FC0123BB815D
:1031E00007F10C031946394800F05AFA40E004216F
:1031F000012000F065FC0223BB8107F10C03194696
:10320000324800F04DFA33E00421012000F058FC70
:103210000423BB8107F10C0319462C4800F040FA47
:1032200026E00421012000F04BFC0823BB8107F1BC
:103230000C031946254800F033FA19E00421012057
:1032400000F03EFC1023BB8107F10C0319461F4818
:1032500000F026FA0CE00421012000F031FC2023CC
:10326000BB8107F10C031946184800F019FA00BF9A
:103270007B68DB6AFA78013A12051A437B68DA62E6
:103280007B685B6B23F01F02FB781A437B685A63F1
:103290007B689B6843F001027B689A607B689B684F
:1032A00043F480027B689A6000BF7B681B6803F070
:1032B0000203002BF9D07B68DB6C9BB218461037F9
:1032C000BD4680BD00080140000C014000100140D7
:1032D00080B500AF054B5B69044A43F001035361BD
:1032E000034B1B68984700BF80BD00BF000401402E
:1032F0001C02002080B500AF054B5B69044A43F017
:1033000002035361034B5B68984700BF80BD00BF59
:10331000000401401C02002080B500AF054B5B6932
:10332000044A43F004035361034B9B68984700BF72
:1033300080BD00BF000401401C02002080B500AF2A
:10334000054B5B69044A43F008035361034BDB6898
:10335000984700BF80BD00BF000401401C02002050
:1033600080B500AF054B5B69044A43F0100353611D
:10337000034B1B69984700BF80BD00BF000401409C
:103380001C02002080B500AF284B5B6903F02003CE
:10339000002B09D0254B5B69244A43F0200353617D
:1033A000234B5B6998473EE0204B5B6903F0400389
:1033B000002B09D01D4B5B691C4A43F0400353614D
:1033C0001B4B9B6998472EE0184B5B6903F0800309
:1033D000002B09D0154B5B69144A43F080035361FD
:1033E000134BDB6998471EE0104B5B6903F4807355
:1033F000002B09D00D4B5B690C4A43F48073536179
:103400000B4B1B6A98470EE0084B5B6903F4007393
:10341000002B08D0054B5B69044A43F400735361E9
:10342000034B5B6A984700BF80BD00BF00040140AA
:103430001C02002080B500AF304B5B6903F4806351
:10344000002B09D02D4B5B692C4A43F480635361F8
:103450002B4B9B6A98474EE0284B5B6903F4006353
:10346000002B09D0254B5B69244A43F40063536168
:10347000234BDB6A98473EE0204B5B6903F48053A3
:10348000002B09D01D4B5B691C4A43F480535361E8
:103490001B4B1B6B98472EE0184B5B6903F40053E2
:1034A000002B09D0154B5B69144A43F40053536158
:1034B000134B5B6B98471EE0104B5B6903F4804332
:1034C000002B09D00D4B5B690C4A43F480435361D8
:1034D0000B4B9B6B98470EE0084B5B6903F4004372
:1034E000002B08D0054B5B69044A43F40043536149
:1034F000034BDB6B984700BF80BD00BF0004014059
:103500001C02002080B485B000AF0346FB8000237E
:10351000FB73FB88B3F5004F00F0B880B3F5004FA4
:1035200000F3B780B3F5804F00F0AD80B3F5804F66
:1035300000F3AF80B3F5005F00F0A280B3F5005F49
:1035400000F3A780B3F5805F00F09780B3F5805F4C
:1035500000F39F80B3F5006F00F08C80B3F5006F2F
:1035600000F39780B3F5806F00F08180B3F5806F32
:1035700000F38F80B3F5007F76D0B3F5007F00F3C2
:103580008880B3F5807F6CD0B3F5807F00F38180B5
:10359000802B63D0802B7CDC202B47DC002B78DD5C
:1035A000013B1F2B75D801A252F823F033360008D7
:1035B00039360008933600083F3600089336000875
:1035C0009336000893360008453600089336000805
:1035D00093360008933600089336000893360008A7
:1035E00093360008933600084B36000893360008DF
:1035F0009336000893360008933600089336000887
:103600009336000893360008933600089336000876
:103610009336000893360008933600089336000866
:10362000933600089336000851360008402B12D01C
:103630002FE00023FB732CE00423FB7329E0082315
:10364000FB7326E00C23FB7323E01023FB7320E0C5
:103650001423FB731DE01823FB731AE01C23FB7378
:1036600017E00023FB7314E00423FB7311E008232D
:10367000FB730EE00C23FB730BE01023FB7308E0DD
:103680001423FB7305E01823FB7302E01C23FB7378
:1036900000BFFB7B18461437BD4680BC704700BF97
:1036A00080B586B000AF7860396000233B613B682D
:1036B0001B88FF2B01D87B6801E07B6804333B61EA
:1036C0003B681B881846FFF71DFF0346FB733B69E9
:1036D0001B68FA7B0F2101FA02F2D2431A403B69C0
:1036E0001A600023FB753B689B78072B0BD03B6867
:1036F0009B78062B07D03B689B78042B03D03B6854
:103700009B78052B0ED13B689B78043B9B005AB2FB
:103710003B68DB785BB213435BB2DBB203F00F03B1
:10372000FB752CE03B689B78012B03D03B689B78B2
:10373000002B07D13B689B789B00DBB203F00F03A3
:10374000FB751CE03B689B78102B02D10423FB75B2
:1037500015E00823FB753B689B78022B07D17B683B
:10376000DB683A6812881A437B68DA6007E07B6896
:10377000DB683A681288D2431A407B68DA603B699A
:103780001B68F97DFA7B01FA02F21A433B691A6061
:1037900000BF1837BD4680BD80B483B000AF7860ED
:1037A0000B467B8013467B707B78002B06D07B68B2
:1037B000DA687B881A437B68DA6006E07B68DA683F
:1037C0007B88DB431A407B68DA6000BF0C37BD465C
:1037D00080BC704780B483B000AF0346FB71FB79B7
:1037E0001F2B09D80F4B1A68FB79012101FA03F34B
:1037F0000C4913430B600FE0FB791F2B0CD9FB79AD
:103800003B2B09D8084B1A68FB79203B012101FAB0
:1038100003F3054913430B6000BF0C37BD4680BC62
:10382000704700BF00E100E004E100E080B483B035
:1038300000AF224B5B689B08DBB203F00303FB7015
:103840001F4B7B60FB78022B0CD0022B30DC002B53
:1038500002D0012B03D02BE0194B7B6028E0184BE2
:103860007B6025E0154B5B681B0CDBB203F00103AA
:10387000BB70BB78002B0AD0104B5B6803F400339D
:10388000012B01D10F4B00E00D4B7B6001E00D4B94
:103890007B600A4B5B689B0C9BB203F00F033B8081
:1038A0003B8802331A467B6802FB03F37B6000BF50
:1038B0007B6818460C37BD4680BC7047001002403C
:1038C00000127A0000093D0080B500AF00F024F836
:1038D0000246054B5B681B0A03F007030349CB5CF8
:1038E00022FA03F3184680BD001002400C000020AD
:1038F00080B500AF00F010F80246054B5B68DB0AAC
:1039000003F007030349CB5C22FA03F3184680BD9A
:10391000001002400C00002080B500AFFFF786FFCA
:103920000246054B5B681B0903F00F030349CB5CA0
:1039300022FA03F3184680BD001002401400002054
:1039400090B482B000AF0446084611461A4623469A
:10395000FB710346BB710B467B7113463B71FB79D0
:10396000102B4DD0102B00F3A480002B02D0012B84
:1039700013D09EE0514B1B68504A43F00103136083
:103980004E4B5B684D4A23F0010353604B4B5B6821
:103990004A4A23F0020353608BE0484B1B68474AB6
:1039A00043F480331360BB79002B02D0012B13D07A
:1039B0007FE0424B1B68414A23F4802313603F4B56
:1039C0005B683E4A43F0010353603C4B5B683B4AF3
:1039D00023F00203536012E0384B1B68374A43F46C
:1039E00080231360354B5B68344A43F00103536016
:1039F000324B5B68314A23F00203536000BF58E04A
:103A00007B79002B02D0012B2CD051E02B4B5B6833
:103A10002A4A43F480335360284B5B68274A23F4D7
:103A200000335360254B5A683B799B042349134369
:103A30004B60224B1B68214A43F0807313601F4B7D
:103A40001B681E4A43F4803313601C4B5B681B4A9F
:103A500023F001035360194B5B68184A43F00203DB
:103A6000536025E0154B1B68144A43F001031360B3
:103A7000124B5A683B799B04104913434B600F4B20
:103A80001B680E4A43F0807313600C4B5B680B4A53
:103A900023F001035360094B5B68084A43F00203BB
:103AA0005360064B5B68054A23F48033536000BFC4
:103AB00000BF00BF0837BD4690BC704700100240F1
:103AC00080B483B000AF03460A46FB711346BB7156
:103AD000FB79022B1CD0022B25DC002B02D0012B02
:103AE0000BD020E0124BDB69BA79012101FA02F216
:103AF00011460F4A0B43D36115E00D4B9B69BA7910
:103B0000012101FA02F21146094A0B4393610AE0CE
:103B1000074B5B69BA79012101FA02F21146044AA6
:103B20000B43536100BF00BF0C37BD4680BC7047DC
:103B30000010024080B485B000AF78600023FB60C5
:103B400029E01A4B1B68194A43F001031360174B15
:103B50001B68164A23F002031360154B1B68134AB7
:103B60004FF47A7101FB03F3536000BF0F4B1B68E6
:103B700003F48033002BF9D00C4B00225A600B4B1E
:103B800000229A60094B1B68084A23F00103136066
:103B9000FB680133FB60FA687B689A42D1D300BFAF
:103BA00000BF1437BD4680BC704700BF10E000E086
:103BB0002400002080B582B000AF0023FB710E4BC3
:103BC00000225A600C4B00229A600B4B1B680A4A79
:103BD00023F001031360084B1B68074A23F002031C
:103BE0001360064B1B689847034B1B680023FB714F
:103BF00000BF0837BD4680BD10E000E05C02002039
:103C0000B0B584B000AF786039603B68594A9342E0
:103C10000BD1594A7B6814461D460FCD0FC42B6843
:103C200023600E210120FFF74BFF3B68534A93426C
:103C30000DD1514B7A6803F1140415460FCD0FC412
:103C40002B68236011210020FFF73AFF10E03B684A
:103C50004B4A93420CD1484B7A6803F1280415462D
:103C60000FCD0FC42B68236012210020FFF728FF1F
:103C70003B68DB6843F400523B68DA603B68DB6812
:103C80007A6812781A433B68DA603B681B697A6885
:103C9000127A1A433B681A613B68DB687A68527A89
:103CA0001A433B68DA603B68DB687A68927A1A43A9
:103CB0003B68DA603B685B697A68D27A1A433B6892
:103CC0005A613B682B4A934203D1FFF711FEF8601B
:103CD00002E0FFF7F9FDF8607B685B681B01FA689A
:103CE000B2FBF3F31901FA6813469B0013449A00E0
:103CF0001A447B685B689B00B2FBF3F27B685B68ED
:103D00001B01F868B0FBF3F3642000FB03F3D31A44
:103D10001B011C4AA2FB03235B0903F00F030B43A7
:103D2000BB603B68BA689A607B681B7B002B1DD028
:103D30003B68DB687A68127B1A433B68DA603B6851
:103D40000C4A934203D12520FFF744FD0EE03B6867
:103D50000A4A934203D12620FFF73CFD06E03B6868
:103D6000074A934202D12720FFF734FD00BF1037E6
:103D7000BD46B0BD00380140600200200044004054
:103D8000004800401F85EB5180B584B000AF7860DB
:103D90007B682B4A934218D10623BB730123FB7324
:103DA0004FF40073BB8107F10C0319462548FFF758
:103DB00077FC1023BB734FF48063BB8107F10C03C6
:103DC00019462048FFF76CFC36E07B681E4A934298
:103DD00016D10623BB730123FB730423BB8107F1B8
:103DE0000C0319461748FFF75BFC1023BB7308232D
:103DF000BB8107F10C0319461248FFF751FC1BE089
:103E00007B68124A934217D10623BB730123FB73CD
:103E10004FF48063BB8107F10C0319460C48FFF790
:103E20003FFC1023BB734FF40063BB8107F10C030D
:103E300019460748FFF734FC00BF1037BD4680BD68
:103E400000380140000801400044004000480040A4
:103E5000000C014080B487B000AFF860B960134631
:103E6000FB710023FB75FB68104A934207D0FB6887
:103E70000F4A934201D1012302E0022300E0002314
:103E8000FB75FB79002B06D100BFFB681B6803F0B4
:103E90008003002BF9D0BB681B88DAB2FB685A603C
:103EA00000BF1C37BD4680BC704700BF00380140D2
:103EB0000044004080B485B000AF78600B46FB70D2
:103EC0000023FB737B681A4A934207D07B68194A28
:103ED000934201D1012302E0022300E00023FB739F
:103EE000FB78002B06D100BF7B681B6803F0200322
:103EF000002BF9D0FA7B104913469B0013449B001A
:103F00000B440A331B78002B05D17B685B689BB29E
:103F1000DBB2BB8105E07B685B689BB203F07F038B
:103F2000BB81BB8918461437BD4680BC704700BFB3
:103F300000380140004400406002002080B584B099
:103F400000AF786039603868FCF71CF9B86000236E
:103F5000FB600AE03A68FB6813440022194678685F
:103F6000FFF778FFFB680133FB60FA68BB689A4291
:103F7000F0D300BF00BF1037BD4680BD80B584B010
:103F800000AF786039600023FB7300217868FFF789
:103F900091FF03461946FB7B3A681344CAB21A7074
:103FA0000DE0FB7B0133FB7300217868FFF782FF94
:103FB00003461946FB7B3A681344CAB21A70FB7B6E
:103FC0003A6813441B78002B05D0FB7B3A681344F6
:103FD0001B78232BE5D1FB7B3A68134400221A702F
:103FE00000BF1037BD4680BD80B500AF024B1B69D6
:103FF000984700BF80BD00BF6002002080B500AFC1
:10400000024B5B6A984700BF80BD00BF6002002082
:1040100080B500AF024B9B6B984700BF80BD00BFCF
:104020006002002080B5A0B000AF00230022002174
:104030000120FFF785FC02210120FFF741FD0E2141
:104040000120FFF73DFD4FF41653FB66002387F870
:104050007230002387F87130002387F87030002316
:1040600087F873300C2387F868300023BB67002380
:1040700087F8743007F1680339491846FFF7C0FD27
:104080003748FFF781FE07F15C0300221A605A608F
:104090009A6007F1280319463148FFF76FFF3B1D6F
:1040A00007F1280211461846FCF7C2FE7B693B6601
:1040B0003B1D2C491846FCF75BF80346002B05D145
:1040C00007F15C031846FCF79BFDE2E73B1D264920
:1040D0001846FCF74DF80346002B09D13B7E303BD8
:1040E000DAB207F15C0311461846FCF7FFFDD0E792
:1040F0003B1D1E491846FCF73BF80346002B05D133
:1041000007F15C031846FCF70BFEC2E73B1D18499C
:104110001846FCF72DF80346002B12D13B1D143333
:10412000FA6F1449184601F057F907F15C03F96F6B
:104130001846FCF71BFE07F15C031846FCF724FE4B
:10414000A7E73B1D0C491846FCF712F80346002B65
:104150009FD107F15C031846FCF7B8FD99E700BF53
:1041600000380140E47C0008E87C0008EC7C000892
:10417000F07C0008F47C0008F87C000880B400AFF4
:1041800001231846BD4680BC704780B582B000AFA1
:104190007860396001F032FA034616221A604FF057
:1041A000FF3318460837BD4680BD80B582B000AFEA
:1041B00078604FF0FF317868FFF7E7FF00BFFDE759
:1041C00080B586B000AFF860B9607A6000237B618B
:1041D0000AE0AFF300800146BB685A1CBA60CAB25D
:1041E0001A707B6901337B617A697B689A42F0DBE4
:1041F0007B6818461837BD4680BD80B586B000AFD5
:10420000F860B9607A6000237B6109E0BB685A1CE2
:10421000BA601B781846AFF300807B6901337B617D
:104220007A697B689A42F1DB7B6818461837BD468D
:1042300080BD80B483B000AF78604FF0FF33184684
:104240000C37BD4680BC704780B483B000AF786047
:1042500039603B684FF400525A60002318460C370F
:10426000BD4680BC704780B483B000AF7860012346
:1042700018460C37BD4680BC704780B485B000AF8F
:10428000F860B9607A60002318461437BD4680BCD8
:104290007047000080B586B000AF7860144A154BB7
:1042A000D31A7B617B693B61134B1B68002B02D1E6
:1042B000114B124A1A60104B1A687B6813443A6912
:1042C0009A4207D201F09AF903460C221A604FF085
:1042D000FF3309E0084B1B68FB60074B1A687B68DB
:1042E0001344054A1360FB6818461837BD4680BD65
:1042F00000500020000400009C020020F003002079
:104300000D488546AFF300800C480D490D4A002347
:1043100002E0D458C4500433C4188C42F9D30A4A7A
:104320000A4C002301E013600432A242FBD301F0E7
:104330006BF9FFF777FEFEE7005000200000002039
:10434000F0010020F4800008F0010020EC030020C0
:10435000FEE70000024B0146186800F02DB800BFD0
:10436000A0010020024B0146186801F089B900BF86
:10437000A001002070B50F4E0C463168054611B9FA
:1043800001F01AF930602146284601F015F9431C66
:1043900003D14FF0FF34204670BDC41C24F0030449
:1043A000A042F8D0211A284601F006F90130F2D1D6
:1043B000EFE700BFA00200202DE9F843CD1C25F057
:1043C000030508350C2D38BF0C25002D064601DBF2
:1043D000A94204D90C2333600020BDE8F883DFF83C
:1043E000D48000F069F8D8F800301C4644BB294658
:1043F0003046FFF7BFFF431C044658D1D8F80040B1
:104400002746002F43D1002C4BD023683946304635
:1044100004EB030901F0D0F8814542D12168304610
:104420006D1A2946FFF7A6FF01303AD023682B44C6
:104430002360D8F800305A6862BBC8F800700FE0FB
:104440002268521B20D40B2A17D96119A342256078
:1044500018BF5960636808BFC8F8001062514B600C
:10446000304600F02FF804F10B00231D20F0070068
:10447000C21A1CBF1B1AA350AFE76268A3420CBF4D
:10448000C8F800205A60EBE723466468AEE73C4674
:104490007F68B6E71A465B68A342FBD100235360EE
:1044A000DEE70C233046336000F00CF894E705603B
:1044B000D6E700BFA4020020014801F0CAB800BF3F
:1044C000E8030020014801F0C5B800BFE803002060
:1044D000024B0A460146186800F002B8A00100200D
:1044E0002DE9F041804615460C4621B91146BDE83C
:1044F000F041FFF761BF2AB901F0C2F8002420465D
:10450000BDE8F08102F0F6F88542064602D8B5EB28
:10451000500FF4D829464046FFF74EFF07460028C3
:10452000ECD0B5422A46214628BF324601F093F826
:104530002146404601F0A4F83C46E0E72DE9F04171
:104540000F46904601F0A2FF04460D46B8F1000F59
:1045500011D0C7F30A53C3F16B03002B0BDD00240A
:104560001B0503F17F5505F5401522462B46FBF749
:10457000CDFF04460D4620462946BDE8F0810000E7
:104580002DE9F04F9FB0179200220C461A924FF07F
:10459000000A4FF0000B0A460590199211782B295A
:1045A00048D036D80D2930D8082930D8002939D03C
:1045B00000220B92199D2A78302A40F0B1806A7847
:1045C00002F0DF02582A6CD102930B9B8E4A0193B2
:1045D0001AAB009305981BAB19A901F001F910F073
:1045E0000F06044605D0062E26D100230135199565
:1045F0000B93179B002B40F084850B9BBBB150465F
:104600000BF100411FB0BDE8F08F2029D0D101325D
:10461000C3E72D29CCD101210B91511C199152785E
:10462000002AC7D1179B1994002B40F0688550468B
:104630005946E7E70021EFE71A9A3AB135211CA85D
:1046400002F014F81A99059801F0EEFB013E1B9A4E
:10465000042E06D8DFE806F014031D201400DDE95F
:104660001CABE10548BF4BF0004B2BF000431B0D8A
:104670001B05002BBDD100F0C1FF22230360B8E76A
:1046800002F23342DDE91CA323F4801343EA025B08
:10469000E7E7DFF878B1E4E76FF0004B4FF0FF3A5F
:1046A000DFE7199B5A1C19925B78302BF9D0002B4D
:1046B0009FD001230993199B0A220C9300231F46C4
:1046C00008930A9319980578A5F13003D9B20929FE
:1046D00028D901224E4900F016FF002832D00020D0
:1046E0002A4681463D460346652A01D0452A14D113
:1046F0001DB9099A024395D00025199C621C199294
:1047000062782B2A77D02D2A7BD04FF0000CA2F1B3
:104710003001092940F2828019944FF00008A2E08C
:104720000023C7E7082FD5BF0A99089902FB013378
:1047300002FB013300F10100D4BF0A930893013753
:104740001990BFE7199B5A1C19925A787FB381467A
:104750003D46A2F13003092B12D90123C4E7199B6E
:1047600001305A1C19925A78302AF8D0A2F131033C
:10477000082B00F2CB84814600200546199B0C9340
:10478000303A00F101032AD099440A212B4600EB6C
:10479000050C63450DD1691C01442844082816DC2A
:1047A0000A230A9803FB00230A93002318E03846E3
:1047B000DAE7082B03F1010303DC0A9E4E430A9655
:1047C000E7E7102BDEBF089E4E430896E1E70F286F
:1047D000EBDC0A23089803FB00230893E5E729464E
:1047E000199A0D46501C199052781846B1E74FF0AF
:1047F000000901237DE74FF0000CA21C1992A2785A
:1048000085E74FF0010CF8E7307D00080000F07FED
:104810000C7D0008199A511C19915278302AF9D050
:10482000A2F1310108293FF678AF4FF00A08303A7B
:104830000E92199A0F92199A561C19965278A2F153
:10484000300EBEF1090F39D90F9944F61F68761A58
:10485000082E03DC0E998845A8BF8846BCF1000FDE
:1048600001D0C8F10008002D4ED1099908437FF40A
:10487000C0AE002B7FF4D6AE692A28D025DC492AA9
:1048800025D04E2A7FF4CEAE9A4919A801F0CAF974
:1048900000283FF4C7AE199B1B78282B2ED19649D0
:1048A0001CAA19A801F0D2F9052827D11D9BDDF813
:1048B00070A043F0FF4B4BF4E00B9AE60E9908FB17
:1048C0000121A1F130020E92B5E76E2ADAE78B4999
:1048D00019A801F0A7F900283FF4A4AE199B884954
:1048E000013B19A8199301F09DF910B9199B0133E7
:1048F00019934FF0000ADFF80CB27AE6824800F014
:10490000B9FE82468B4674E6A8EB0903002F08BF68
:104910002F460A98102D2C460993A8BF1024FBF7A8
:104920007BFD092D82468B4611DC099B002B3FF451
:1049300060AE099B76DD162B5DDC7449524601EBB7
:10494000C3015B46D1E90001FBF7E0FDD9E76F4BFE
:1049500003EBC40353E91223FBF7D8FD8246089802
:104960008B46FBF759FD02460B4650465946FBF76E
:1049700017FC0F2D82468B46D7DD099B2C1B1C4450
:10498000002C40F3968014F00F030AD05F49524682
:1049900001EBC301D1E900015B46FBF7B7FD82469D
:1049A0008B4634F00F0473D0B4F59A7F48DD0024B1
:1049B000A046A1460A9422234FF0000A059ADFF888
:1049C00044B113600A9B002B3FF413AE1A9905986B
:1049D00001F02AFA4946059801F026FA4146059861
:1049E00001F022FA0A99059801F01EFA214605986D
:1049F00001F01AFAFDE5099AC5F125039342BCDBE3
:104A0000424CC5F10F0504EBC5015246D1E9000146
:104A10005B46FBF77BFD099B5D1B04EBC504D4E9FA
:104A2000002391E71633A8DB384BA9EB080803EB0A
:104A3000C8085046D8E900235946FBF791FE60E7C5
:104A4000334B50460893002359461E462411012C2F
:104A500021DC0BB182468B462D49ABF1547B01EB37
:104A6000C6015246D1E900015B46FBF74FFD254BDD
:104A70000A460B40274982468B4298D8A1F58011FF
:104A80008B4286BF4FF0FF3ADFF88CB002F1547BC7
:104A9000002308937AE0E20705D5089BD3E90023B9
:104AA000FBF734FD0123089A01360832641008929E
:104AB000CDE7EDD0644214F00F020AD0134B5046FC
:104AC00003EBC2035946D3E90023FBF749FE8246B4
:104AD0008B462411DCD01F2C20DD0024A046A146EB
:104AE0000A942223059A4FF0000A4FF0000B13603E
:104AF00068E700BF177D00081C7D00080E7D0008D8
:104B0000117D00080000F07FE1800008907F000820
:104B1000687F00080000A07CFFFFEF7F14F0100307
:104B200018BF6A235046089359460023A94EE2074E
:104B300004D5D6E90023FBF7E9FC0123641006F154
:104B40000806F4D10BB182468B46089BB3B1CBF378
:104B50000A52C2F16B03002B59460FDD1F2B57DDA4
:104B6000342BD8BF4FF0FF334FF0000ACFBF4FF0C8
:104B70005C7BC2F14B02934003EA010B002200234D
:104B800050465946FBF72AFF0028A6D10A9B3A4611
:104B900000930C992B46059801F0AEF90A90002875
:104BA0003FF405AF0024099AA9EB0803002AA8BF27
:104BB0000023A046129322EAE27316930A9B0598FB
:104BC000596801F0F1F8814600283FF4F4AE0A9BE1
:104BD0000C301A6903F10C010232920000F03BFD27
:104BE0001CAB01931BAB009352465B460598CDE985
:104BF0000CAB01F0B3FC1A9000283FF4DCAE0121AD
:104C0000059801F00FFA804648B94FF00008D2E647
:104C10004FF0FF3202FA03F303EA0A0AAEE71B9DE4
:104C20001C9A002DABBF129B169BEF185E1B089BB6
:104C3000A8BF169EA5EB03051544674B05F1FF358C
:104C4000B8BF129F9D42C2F1360250DA5B1B1F2B88
:104C50004FF00101A2EB03023DDC01FA03F31393D1
:104C600000231093BD18089BAF4216441E443B46D8
:104C7000A8BF2B46B342A8BF3346002BC2BFED1AD4
:104C8000F61AFF1A129B002B16DD41461A460598AC
:104C900001F086FA80460028B7D001461A9A059896
:104CA00001F0D6F90E9000283FF485AE1A990598C8
:104CB00001F0BAF80E9B1A93002D1DDC099B002B06
:104CC00023DD4946169A059801F06AFA8146E0B953
:104CD0004FF000096FE6C5F17F4505F57F0505F545
:104CE0007B45E23501FA05F310931391BAE70023EF
:104CF000109301231393B5E72A461A99059801F0FA
:104D0000A9FA1A900028D9D155E6002E07DD4946A8
:104D10003246059801F09EFA81460028D8D0002F2F
:104D200008DD41463A46059801F094FA804600288D
:104D30003FF441AE4A461A99059801F013FB044628
:104D400000283FF438AEC36841460F930023C36088
:104D500001F0ECFA002845DA0F9B53EA0A036BD105
:104D6000CBF31303002B67D12BF000431B0D1B0566
:104D7000B3F1D66F60D9636913B92369012B5BDD89
:104D800021460122059801F065FA4146044601F0EA
:104D9000CDFA002850DD2BF00043089A1B0D1B05AF
:104DA000002A6AD0B3F1D66F67D8B3F15C7F7FF683
:104DB00098AE50465946094B0022FBF7A7FB084B1B
:104DC00082460B408B46002B7FF400AE2223059ACF
:104DD0001360FBE5487D000802FCFFFF000050392E
:104DE0000000F07FCDF838B065D10F9ACBF31303F4
:104DF0005AB3994A93422BD1089B514603B35A4662
:104E0000964B1340B3F1D46F4FF0FF321BD81B0DFC
:104E1000C3F16B0302FA03F3994219D1904B0E9A36
:104E20009A4202D101313FF4C6AD4FF0000A8B4BDC
:104E30000E9A1A4002F5801B089B002BB9D1C5E5DC
:104E40004FF0FF33E8E71346E6E753EA0A03A2D040
:104E5000109BDBB10E9A1342EED00F9B5046594681
:104E6000089ABBB1FFF76AFB02460B46DDE90C016D
:104E7000FBF796F982468B46DEE7A3F580136FEACF
:104E8000135B4FF0FF3A6FEA0B5BD5E7139B13EA16
:104E90000A0FE1E7FFF752FB02460B46DDE90C0182
:104EA000FBF77CF90022002382468B46FBF796FD38
:104EB0000028C1D015E64146204601F0A7FB00229C
:104EC0004FF0804306460F46FBF79CFD00286DD04F
:104ED0000F9B002B78D1BAF1000F56D10E9BC3F374
:104EE0001303002B58D10022304639465D4BFBF7A7
:104EF0007FFD002857D13046394600225A4BFBF738
:104F000005FB06460F4607F1004306960793DDE9C9
:104F10000623524DCDE910230E9B1D40534B9D425D
:104F200040F0AA800E9B5046A3F1547B594601F0F5
:104F3000ADFADDE90623FBF7E9FA52465B46FBF7DB
:104F40002FF90B4645494A4A19409142824642D9B7
:104F50000D9A434B9A4203D10C9B01333FF42BAD86
:104F60004FF0FF3ADFF8F8B01A99059800F05CFFAF
:104F70004946059800F058FF4146059800F054FF57
:104F80002146059800F050FF18E6BAF1010F03D151
:104F90000E9B002B3FF4A5AD0022364B0026CDE939
:104FA0000623304FB3E700262F4FACE73046394693
:104FB0002D4B0022FBF7AAFA0F9B06460F46002B4B
:104FC000A1D0CDE90667A2E70022264B16461F4670
:104FD000CDE906239BE703F1547B089BCDF838B05D
:104FE000002BC1D12BF000431B0D1B059D42BBD1F3
:104FF00030463946FBF782FDFBF75AFA02460B466C
:1050000030463946FBF7CAF80B460246CBF3130687
:10501000CDE90C230F9B46EA0A061E4369D00AA37A
:10502000D3E90023FBF7E4FC00287FF4CFAC08A30E
:10503000D3E90023DDE90C01FBF7F8FC002893D04D
:10504000C4E400BFAFF300809535A094FFFFDF3FBD
:1050500035E5AF350000E03FFFFF0F000000F07FB7
:10506000FFFFEF7F0000F03F0000E03F0000E07F27
:10507000FFFF9F7C0000F0BF089B23B3B5F1D46F06
:1050800021D827A3D3E9002330463946FBF7BAFCE1
:10509000A0B139463046FBF711FD012838BF012089
:1050A000FBF7BAF90F9B06460F46FBB901F1004327
:1050B00014901593DDE91423CDE91023119B03F11E
:1050C000D6635B1B1193DDE90C01DDE910AB01F048
:1050D000DDF902460B4650465946FBF717FADDE963
:1050E0000C23FBF75DF882468B4676E7CDE9146723
:1050F000E0E70DA3D3E90023FBF77AFC9EE700234A
:105100000B93199B179A1360FFF777BA652A3FF440
:105110006EAB452A3FF46BAB0123FFF7A6BB00BF84
:105120000000C0FFFFFFDF419535A094FFFFCF3F98
:105130000A4601460248034B0068FFF721BA00BF48
:10514000A001002034000020242B2DE9F0478646E2
:10515000904601D8012B06D100F050FA16230360C7
:105160000020BDE8F0870D4633482A4615F8014B6C
:10517000065D16F00806F8D12D2C2DD101262C78CD
:10518000951C33F0100209D1302C2AD12A7802F074
:10519000DF02582A25D110236C780235002206F14F
:1051A000004C0CF1FF3CBCFBF3F9104603FB19CAA1
:1051B000A4F13007092F1BD83C46A34227DD571C1A
:1051C00007D0814520D301D1A2451DDB012200FB80
:1051D000034015F8014BEBE72B2C04BF2C78951CF2
:1051E000CFE7002BDAD1302C0CBF08230A23D5E7F8
:1051F000A4F14107192F01D8373CDEE7A4F161077C
:10520000192F04D8573CD8E74FF0FF32E1E7531C81
:1052100008D122236046CEF80030B8F1000FA0D0AC
:10522000691E06E006B14042B8F1000F99D0002A8D
:10523000F6D1C8F8001094E7717D0008FFF784BF2D
:1052400013460A46014602480068FFF77DBF00BFCB
:10525000A0010020002310B50446C0E90033C0E9D6
:105260000433836081814366C281836119460822C9
:105270005C3000F040F90D4B246263620C4BA3627A
:105280000C4BE3620C4B23630C4B9C4206D003F1A6
:105290006802944202D0D0339C4205D104F15800F8
:1052A000BDE8104000F0D4B910BD00BF6D54000837
:1052B00093540008CB540008EF540008A8020020C3
:1052C000024A0349034800F069B800BF28000020E3
:1052D0001D740008A401002041680C4B10B59942D0
:1052E000044601D002F09AF8A168094B994202D015
:1052F000204602F093F8E168064B994204D020461C
:10530000BDE8104002F08AB810BD00BFA80200201E
:10531000100300207803002010B50B4B0B4C0C4AF7
:1053200020461A6004210022FFF794FF04F1680070
:1053300001220921FFF78EFF04F1D0000222BDE80F
:1053400010401221FFF786BFE0030020A8020020D2
:10535000C1520008014800F07CB900BFE9030020F9
:10536000014800F077B900BFE903002010B50446FA
:10537000FFF7F0FF236A1BB1BDE81040FFF7F0BF55
:10538000044B2362044B1B68002BF5D1FFF7C4FFCD
:10539000F2E700BFD9520008E00300202DE9F843EE
:1053A0000746884614460026D4E90195B9F101095B
:1053B00005D52468002CF7D13046BDE8F883AB89C9
:1053C000012B07D9B5F90E30013303D029463846F1
:1053D000C04706436835E9E70EB46FF0004100B5F9
:1053E0009CB01DAB029006900791049108480949B2
:1053F00053F8042B0591006802A9019301F0EAF922
:105400000022029B1A701CB05DF804EB03B07047D9
:10541000A00100200802FFFF0EB44FF4017230B566
:105420009CB01FAC54F8045BADF8142002900690B9
:10543000FAF7A8FE0B4B03900B9300230F931493E2
:105440004FF6FF7307900848ADF816302A462346FA
:1054500002A90068019401F011FB1CB0BDE83040C6
:1054600003B070478F540008A001002010B50C460F
:10547000B1F90E1000F08EF80028ABBF636DA38960
:105480001B1823F48053ACBF6365A38110BD0020BB
:1054900070472DE9F0411F468B890546DB050C4618
:1054A000164605D502230022B1F90E1000F060F86F
:1054B000A389324623F48053A38128463B46B4F99E
:1054C0000E10BDE8F04100F087B810B50C46B1F9F8
:1054D0000E1000F04DF8431CA38915BF606523F43E
:1054E000805343F48053A38118BFA38110BDB1F949
:1054F0000E1000F02DB803460244934200D17047CD
:1055000003F8011BF9E710B56AB10139841810F8E6
:10551000012B11F8013F9A4203D1A04201D0002A89
:10552000F5D1D01A10BD1046FCE7034610B501397D
:1055300032B111F8014F013A03F8014B002CF7D1B9
:1055400000211A44934200D110BD03F8011BF9E772
:1055500038B50023054D044608462B60FEF769FE6A
:10556000431C02D12B6803B1236038BDE403002043
:1055700038B50446084611460022054D2A601A46F1
:10558000FEF77BFE431C02D12B6803B1236038BDBC
:10559000E403002038B50446084611460022054DB4
:1055A0002A601A46FEF70CFE431C02D12B6803B199
:1055B000236038BDE403002038B50023054D0446C0
:1055C00008462B60FEF766FE431C02D12B6803B130
:1055D000236038BDE403002038B504460846114670
:1055E0000022054D2A601A46FEF707FE431C02D131
:1055F0002B6803B1236038BDE4030020014B186819
:10560000704700BFA001002070B500260C4D0D4C66
:10561000641BA410A64209D102F018FB00260A4D13
:105620000A4C641BA410A64205D170BD55F8043B7A
:1056300098470136EEE755F8043B98470136F2E704
:10564000EC800008EC800008EC800008F080000886
:105650007047704770470A44914200F1FF3300D110
:10566000704710B511F8014B914203F8014FF9D181
:1056700010BD000000200149704700BF0000F87F06
:1056800038B50546002940D051F8043C0C1F002BCA
:10569000B8BFE418FEF710FF1C4A136833B9636003
:1056A00014602846BDE83840FEF70CBFA34208D975
:1056B000206821188B4201BF19685B6809182160B6
:1056C000EDE71A465B680BB1A342FAD9116850188E
:1056D000A0420BD120680144501883421160E0D1F0
:1056E00018685B68084410605360DAE702D90C233D
:1056F0002B60D6E7206821188B4201BF19685B68D0
:105700000918216063605460CBE738BDA402002013
:1057100003692DE9F043B3EB611F00F114044FEA74
:10572000611246DD11F01F0104EB830604EB8205D4
:105730000CD1294600F11007B14235D39B1A9B00CA
:10574000EA1E964238BF0023234415E0A14654F8D0
:105750002270C1F12008CF4005F1040E7645F446D1
:1057600016D89A1A9200043A0135AE4238BF002288
:10577000A318A75007B10433A342A3EB040208BF48
:1057800000234FEAA202026108BF4361BDE8F08333
:10579000DCF800C00CFA08FC4CEA070749F8047B67
:1057A0005EF8047BCF40D9E751F804CB47F804CF2B
:1057B000C2E72346E0E7A0F13003092B02D82038E6
:1057C000C0B27047A0F16103052B01D84738F7E755
:1057D000A0F14103052B01D82738F1E700207047DD
:1057E0002DE9F04F8A46904685B002930B680190F0
:1057F0009C1CA14614F8010B3028FAD0A9EB030336
:10580000A3F1020BFFF7D7FF0546002868D101225C
:1058100048469F49FFF777FE0746002867D199F869
:1058200001002646FFF7C7FF002862D023461878FC
:105830009946302803F10103F9D0FFF7BCFFB0FA15
:1058400080F54FF0010B6D094A461646307801325B
:10585000FFF7B1FF0028F8D1012230468C49FFF74D
:1058600052FE00283FD144B9741C224616463078B7
:105870000132FFF7A0FF0028F8D1A41BA70033785E
:1058800003F0DF03502B3ED173782B2B33D02D2B1D
:1058900034D00024711C0878FFF78DFF431EDBB263
:1058A000182B30D8A0F1100211F8010FFFF783FF79
:1058B00000F1FF3C5FFA8CFCBCF1180F4FF00A03BB
:1058C0001ED904B152421744CAF80010EDB1BBF121
:1058D000000F0CBF06250025284605B0BDE8F08F57
:1058E00000252C46B0E7002CC7D12746C7E74E4617
:1058F0002F460125C3E70024B11CCCE70124FBE7B8
:1059000003FB0200CEE73146DEE72946A6EB09039A
:10591000013B072B0ADC019800F046FA044640B927
:105920000246E4215B4B5C4801F03AFE01315B101A
:10593000EFE7002300F1140A55469B46B14537D3E3
:1059400045F804BBA5EB0A05AD102561584600F0EB
:105950001DFB6D01D8F800602D1AB54254DDAD1B5A
:105960002946204600F0A5FE814678B14FF0010996
:105970006B1E59115AF8211003F01F0209FA02F2A6
:105980000A4203D04B4536DC4FF002092946204637
:10599000FFF7BEFE2F44D8F80830BB4242DA21465A
:1059A000019800F041FA00230E9AA325136093E7B3
:1059B00016F8012D2E2A12D0202B04D145F804BB55
:1059C0004FF0000B5B4630780393FFF7F4FE039B28
:1059D00000F00F0098404BEA000B0433AEE7B145EE
:1059E000EAD8012230462A490393FFF78CFD039B36
:1059F0000028E1D1A2E72046A91E00F05AFE0028A7
:105A0000C2D04FF00309C1E709DA751B21462A46C7
:105A1000019800F01FFC04467F1B00F1140A4FF0B0
:105A20000009B8E7D8F80450BD426FDDED1BAE4267
:105A300034DCD8F80C30022B22D0032B24D0012BDD
:105A400015D1AE4213D1012E0BD1D8F80430029AF1
:105A50006225136001232361CAF800300E9B1C608D
:105A60003AE72046711E00F024FE0028EDD12146C1
:105A7000019800F0D9F900230E9A502513602BE706
:105A80000F9B002BF3D1E0E70F9B002BDDD1EEE75E
:105A90000C7D0008797E00088A7E00086F1EB9F12F
:105AA000000F30D127B13946204600F002FE814672
:105AB00001232946761B02257A115AF8222007F085
:105AC0001F07BB401342204618BF49F00209FFF7E9
:105AD0001FFED8F80470B9F1000F47D0D8F80C3089
