:020000040800F2
:1000000000500020451600089516000895160008B7
:1000100095160008951600089516000800000000C7
:10002000000000000000000000000000951600081D
:1000300095160008000000009516000845120008FB
:1000400095160008951600089516000895160008E4
:100050009516000895160008190900083D090008C2
:100060006109000885090008A9090008951600081B
:1000700095160008951600089516000895160008B4
:1000800095160008951600089516000895160008A4
:10009000951600089516000895160008CD09000869
:1000A0009516000895160008951600089516000884
:1000B0009516000895160008951600089516000874
:1000C0009516000895160008951600089516000864
:1000D00095160008E5140008F91400080D1500082D
:1000E0007D0A00089516000800000000951600081B
:1000F0009516000895160008951600089516000834
:100100009516000895160008951600089516000823
:100110009516000895160008951600089516000813
:100120009516000895160008951600089516000803
:1001300010B5054C237833B9044B13B10448AFF321
:1001400000800123237010BD6C000020000000001F
:10015000E81F000808B5034B1BB103490348AFF380
:10016000008008BD0000000070000020E81F0008AB
:1001700080B500AF01F002F8142001F023F8374BEE
:1001800010221A80354B04229A70344B0122DA7007
:100190003249334800F0A8FD304B20221A802F4B03
:1001A00004229A702D4B0122DA702C492C4800F061
:1001B0009BFD2A4B40221A80284B04229A70274B21
:1001C0000122DA702549264800F08EFD234B80225B
:1001D0001A80224B04229A70204B0122DA701F49A8
:1001E0001F4800F081FD1D4B04229A701B4B042216
:1001F0001A801A4B0122DA701849194800F074FD70
:1002000000220421164800F0EBFD144B04229A70E2
:10021000124B08221A80114B0122DA700F49104844
:1002200000F062FD002208210D4800F0D9FD0F20EA
:1002300000F0C8FF00F064F9022000F013F8282055
:1002400000F010F8062000F00DF8802000F00AF809
:100250000F2000F007F800BF80BD00BF880000201D
:10026000000C014080B582B000AF0346FB71002254
:1002700008212C4800F0B4FDFB7903F01003DBB239
:100280001A461021274800F0ABFDFB7903F020034C
:10029000DBB21A462021234800F0A2FDFB7903F0CF
:1002A0004003DBB21A4640211E4800F099FDFB795D
:1002B00023F07F03DBB21A4680211A4800F090FD3C
:1002C0000A2000F07FFF00F03DF9FB7903F0010305
:1002D000DBB21A461021134800F082FDFB7903F0CF
:1002E0000203DBB21A4620210E4800F079FDFB79AB
:1002F00003F00403DBB21A4640210A4800F070FD07
:10030000FB7903F00803DBB21A468021054800F0B0
:1003100067FD0A2000F056FF00F014F900BF08370F
:10032000BD4680BD000C014080B582B000AF0346E1
:10033000FB7101220821424800F052FDFB7903F0D5
:100340001003DBB21A4610213D4800F049FDFB794D
:1003500003F02003DBB21A462021394800F040FDAB
:10036000FB7903F04003DBB21A464021344800F029
:1003700037FDFB7923F07F03DBB21A46802130483A
:1003800000F02EFD0A2000F01DFF00F0DBF8FB79E5
:1003900003F00103DBB21A461021294800F020FDCA
:1003A000FB7903F00203DBB21A462021244800F057
:1003B00017FDFB7903F00403DBB21A464021204805
:1003C00000F00EFDFB7903F00803DBB21A46802132
:1003D0001B4800F005FD0A2000F0F4FE00F0B2F822
:1003E000184B1B68142B03D10021012000F048F8A2
:1003F000144B1B68282B04D10021022000F040F888
:1004000015E0104B1B683C2B04D10021032000F0A9
:1004100037F80CE00B4B1B68502B08D100F070F83C
:100420000021002000F02CF8064B00221A60054B3A
:100430001B680133034A136000BF0837BD4680BD07
:10044000000C01408C00002080B582B000AF7860C5
:100450000BE00A4B1B680133084A13607B685A1C87
:100460007A601B781846FFF75FFF7B681B78002BCC
:10047000EFD100BF00BF0837BD4680BD8C00002013
:1004800080B582B000AF03460A46FB711346BB71CC
:10049000FB79002B09D1BB79132B2CD8BB79803B7E
:1004A000DBB21846FFF7DEFE25E0FB79012B09D110
:1004B000BB79132B1FD8BB79403BDBB21846FFF743
:1004C000D1FE18E0FB79022B09D1BB79132B12D88E
:1004D000BB796C3BDBB21846FFF7C4FE0BE0FB793F
:1004E000032B08D1BB79132B05D8BB792C3BDBB28E
:1004F0001846FFF7B7FE00BF0837BD4680BD0000B5
:1005000080B500AF0120FFF7ADFE024B00221A605C
:1005100000BF80BD8C00002080B584B000AF786043
:1005200007F108037A680649184601F091F907F1C6
:1005300008031846FFF788FF00BF1037BD4680BD8F
:100540000020000880B500AF01220421064800F019
:1005500047FC322000F036FE00220421024800F061
:100560003FFC00BF80BD00BF000C014080B582B0E1
:1005700000AF7860034800F035F800BF0837BD468B
:1005800080BD00BF0024014080B582B000AF78601C
:10059000786800F027F800BF0837BD4680BD00002E
:1005A00080B584B000AF78600B46FB70FB781946CD
:1005B000786800F045F80346FB81FA8913469B00F2
:1005C00013445A011344064A82FB03121A44D212FE
:1005D000DB17D31ABB81BB8918461037BD4680BDD7
:1005E0008100088080B582B000AF78607B68114AD6
:1005F000934204D10921012000F086FD10E07B68C0
:100600000D4A934204D10A21012000F07DFD07E04C
:100610007B680A4A934203D10F21012000F074FD48
:100620007B689B6843F001027B689A6000BF0837D3
:10063000BD4680BD0024014000280140003C01402F
:1006400080B584B000AF78600B46FB700023BB73AD
:10065000FB78092B1ED97B68D968FB78A3F10A02C5
:1006600013465B001344072202FA03F301EA030274
:100670007B68DA607B68D968FB78A3F10A021346CD
:100680005B001344032202FA03F341EA03027B688E
:10069000DA6019E07B681969FA7813465B00134445
:1006A000072202FA03F301EA03027B681A617B68FE
:1006B0001969FA7813465B001344032202FA03F324
:1006C00041EA03027B681A61FB780F2B00F2F48089
:1006D00001A252F823F000BF1907000833070008F1
:1006E0004D07000867070008810700089B070008FE
:1006F000B5070008CF070008E9070008030800084D
:100700001D08000837080008510800086B08000899
:10071000850800089F0800080221012000F0F4FC71
:100720000123BB8107F10C031946784800F0DCFA7D
:10073000C2E00221012000F0E7FC0223BB8107F1A7
:100740000C031946714800F0CFFAB5E002210120F0
:1007500000F0DAFC0423BB8107F10C0319466B4857
:1007600000F0C2FAA8E00221012000F0CDFC08232D
:10077000BB8107F10C031946644800F0B5FA9BE011
:100780000221012000F0C0FC1023BB8107F10C0303
:1007900019465E4800F0A8FA8EE00221012000F020
:1007A000B3FC2023BB8107F10C031946574800F026
:1007B0009BFA81E00221012000F0A6FC4023BB81CE
:1007C00007F10C031946514800F08EFA74E002213B
:1007D000012000F099FC8023BB8107F10C0319462E
:1007E0004A4800F081FA67E00321012000F08CFC08
:1007F0000123BB8107F10C031946454800F074FA48
:100800005AE00321012000F07FFC0223BB8107F1A5
:100810000C0319463E4800F067FA4DE00421012020
:1008200000F072FC0123BB8107F10C031946394823
:1008300000F05AFA40E00421012000F065FC022398
:10084000BB8107F10C031946324800F04DFA33E042
:100850000421012000F058FC0423BB8107F10C03A4
:1008600019462C4800F040FA26E00421012000F04F
:100870004BFC0823BB8107F10C031946254800F007
:1008800033FA19E00421012000F03EFC1023BB8163
:1008900007F10C0319461F4800F026FA0CE004216A
:1008A000012000F031FC2023BB8107F10C03194625
:1008B000184800F019FA00BF7B68DB6AFA78013A41
:1008C00012051A437B68DA627B685B6B23F01F02B8
:1008D000FB781A437B685A637B689B6843F001028C
:1008E0007B689A607B689B6843F480027B689A60AF
:1008F00000BF7B681B6803F00203002BF9D07B6804
:10090000DB6C9BB218461037BD4680BD0008014025
:10091000000C01400010014080B500AF054B5B6941
:10092000044A43F001035361034B1B68984700BF1F
:1009300080BD00BF000401409000002080B500AFE2
:10094000054B5B69044A43F002035361034B5B6848
:10095000984700BF80BD00BF000401409000002008
:1009600080B500AF054B5B69044A43F00403536153
:10097000034B9B68984700BF80BD00BF0004014047
:100980009000002080B500AF054B5B69044A43F03E
:1009900008035361034BDB68984700BF80BD00BF6D
:1009A000000401409000002080B500AF054B5B695A
:1009B000044A43F010035361034B1B69984700BF7F
:1009C00080BD00BF000401409000002080B500AF52
:1009D000284B5B6903F02003002B09D0254B5B6992
:1009E000244A43F020035361234B5B6998473EE060
:1009F000204B5B6903F04003002B09D01D4B5B6962
:100A00001C4A43F0400353611B4B9B6998472EE0FF
:100A1000184B5B6903F08003002B09D0154B5B6911
:100A2000144A43F080035361134BDB6998471EE07F
:100A3000104B5B6903F48073002B09D00D4B5B698D
:100A40000C4A43F4807353610B4B1B6A98470EE0CA
:100A5000084B5B6903F40073002B08D0054B5B69FE
:100A6000044A43F400735361034B5B6A984700BF29
:100A700080BD00BF000401409000002080B500AFA1
:100A8000304B5B6903F48063002B09D02D4B5B690D
:100A90002C4A43F4806353612B4B9B6A98474EE08A
:100AA000284B5B6903F40063002B09D0254B5B697D
:100AB000244A43F400635361234BDB6A98473EE0CA
:100AC000204B5B6903F48053002B09D01D4B5B69FD
:100AD0001C4A43F4805353611B4B1B6B98472EE019
:100AE000184B5B6903F40053002B09D0154B5B696D
:100AF000144A43F400535361134B5B6B98471EE059
:100B0000104B5B6903F48043002B09D00D4B5B69EC
:100B10000C4A43F4804353610B4B9B6B98470EE0A8
:100B2000084B5B6903F40043002B08D0054B5B695D
:100B3000044A43F400435361034BDB6B984700BF07
:100B400080BD00BF000401409000002080B485B04B
:100B500000AF0346FB800023FB73FB88B3F5004F17
:100B600000F0B880B3F5004F00F3B780B3F5804FC5
:100B700000F0AD80B3F5804F00F3AF80B3F5005FB8
:100B800000F0A280B3F5005F00F3A780B3F5805FAB
:100B900000F09780B3F5805F00F39F80B3F5006F9E
:100BA00000F08C80B3F5006F00F39780B3F5806F91
:100BB00000F08180B3F5806F00F38F80B3F5007F84
:100BC00076D0B3F5007F00F38880B3F5807F6CD0DA
:100BD000B3F5807F00F38180802B63D0802B7CDC99
:100BE000202B47DC002B78DD013B1F2B75D801A2A1
:100BF00052F823F07B0C0008810C0008DB0C000885
:100C0000870C0008DB0C0008DB0C0008DB0C00087C
:100C10008D0C0008DB0C0008DB0C0008DB0C000866
:100C2000DB0C0008DB0C0008DB0C0008DB0C000808
:100C3000930C0008DB0C0008DB0C0008DB0C000840
:100C4000DB0C0008DB0C0008DB0C0008DB0C0008E8
:100C5000DB0C0008DB0C0008DB0C0008DB0C0008D8
:100C6000DB0C0008DB0C0008DB0C0008DB0C0008C8
:100C7000990C0008402B12D02FE00023FB732CE0CE
:100C80000423FB7329E00823FB7326E00C23FB738A
:100C900023E01023FB7320E01423FB731DE01823D3
:100CA000FB731AE01C23FB7317E00023FB7314E0B3
:100CB0000423FB7311E00823FB730EE00C23FB738A
:100CC0000BE01023FB7308E01423FB7305E01823EB
:100CD000FB7302E01C23FB7300BFFB7B1846143739
:100CE000BD4680BC704700BF80B586B000AF78605D
:100CF000396000233B613B681B88FF2B01D87B6870
:100D000001E07B6804333B613B681B881846FFF7B2
:100D10001DFF0346FB733B691B68FA7B0F2101FA39
:100D200002F2D2431A403B691A600023FB753B680C
:100D30009B78072B0BD03B689B78062B07D03B6832
:100D40009B78042B03D03B689B78052B0ED13B6826
:100D50009B78043B9B005AB23B68DB785BB2134341
:100D60005BB2DBB203F00F03FB752CE03B689B78B2
:100D7000012B03D03B689B78002B07D13B689B7805
:100D80009B00DBB203F00F03FB751CE03B689B7814
:100D9000102B02D10423FB7515E00823FB753B687B
:100DA0009B78022B07D17B68DB683A6812881A436C
:100DB0007B68DA6007E07B68DB683A681288D243B8
:100DC0001A407B68DA603B691B68F97DFA7B01FA9F
:100DD00002F21A433B691A6000BF1837BD4680BD56
:100DE00080B483B000AF78600B467B8013467B7085
:100DF0007B78002B06D07B68DA687B881A437B6897
:100E0000DA6006E07B68DA687B88DB431A407B683F
:100E1000DA6000BF0C37BD4680BC704780B483B039
:100E200000AF0346FB71FB791F2B09D80F4B1A68E3
:100E3000FB79012101FA03F30C4913430B600FE026
:100E4000FB791F2B0CD9FB793B2B09D8084B1A686F
:100E5000FB79203B012101FA03F3054913430B60A1
:100E600000BF0C37BD4680BC704700BF00E100E00A
:100E700004E100E080B483B000AF224B5B689B08C4
:100E8000DBB203F00303FB701F4B7B60FB78022B8C
:100E90000CD0022B30DC002B02D0012B03D02BE036
:100EA000194B7B6028E0184B7B6025E0154B5B6895
:100EB0001B0CDBB203F00103BB70BB78002B0AD024
:100EC000104B5B6803F40033012B01D10F4B00E0A2
:100ED0000D4B7B6001E00D4B7B600A4B5B689B0C0C
:100EE0009BB203F00F033B803B8802331A467B68BA
:100EF00002FB03F37B6000BF7B6818460C37BD46DE
:100F000080BC70470010024000127A0000093D00CA
:100F100080B500AF00F024F80246054B5B681B0A61
:100F200003F007030349CB5C22FA03F3184680BDA4
:100F3000001002400000002080B500AF00F010F863
:100F40000246054B5B68DB0A03F007030349CB5CF1
:100F500022FA03F3184680BD001002400000002072
:100F600080B500AFFFF786FF0246054B5B681B09A3
:100F700003F00F030349CB5C22FA03F3184680BD4C
:100F8000001002400800002090B482B000AF044678
:100F9000084611461A462346FB710346BB710B46B1
:100FA0007B7113463B71FB79102B4DD0102B00F356
:100FB000A480002B02D0012B13D09EE0514B1B6864
:100FC000504A43F0010313604E4B5B684D4A23F0D7
:100FD000010353604B4B5B684A4A23F002035360A2
:100FE0008BE0484B1B68474A43F480331360BB795E
:100FF000002B02D0012B13D07FE0424B1B68414AEB
:1010000023F4802313603F4B5B683E4A43F00103A7
:1010100053603C4B5B683B4A23F00203536012E091
:10102000384B1B68374A43F480231360354B5B68A9
:10103000344A43F001035360324B5B68314A23F07A
:101040000203536000BF58E07B79002B02D0012BD4
:101050002CD051E02B4B5B682A4A43F48033536019
:10106000284B5B68274A23F400335360254B5A68AA
:101070003B799B04234913434B60224B1B68214A55
:1010800043F0807313601F4B1B681E4A43F4803388
:1010900013601C4B5B681B4A23F001035360194B20
:1010A0005B68184A43F00203536025E0154B1B6848
:1010B000144A43F001031360124B5A683B799B04B6
:1010C000104913434B600F4B1B680E4A43F080736B
:1010D00013600C4B5B680B4A23F001035360094B10
:1010E0005B68084A43F002035360064B5B68054A9D
:1010F00023F48033536000BF00BF00BF0837BD46F4
:1011000090BC70470010024080B483B000AF03462B
:101110000A46FB711346BB71FB79022B1CD0022BD4
:1011200025DC002B02D0012B0BD020E0124BDB6919
:10113000BA79012101FA02F211460F4A0B43D36139
:1011400015E00D4B9B69BA79012101FA02F21146B3
:10115000094A0B4393610AE0074B5B69BA790121A5
:1011600001FA02F21146044A0B43536100BF00BF6B
:101170000C37BD4680BC70470010024080B500AF00
:10118000FFF778FE03460C4AA2FB03239B0C0B4A95
:1011900013600A4B1B68DB08084A1360084B1B6886
:1011A000074A23F004031360054B1B68044A43F00D
:1011B0000103136000BF80BD83DE1B4318000020C5
:1011C00010E000E080B485B000AF78600023FB60E1
:1011D00029E01A4B1B68194A43F001031360174BAF
:1011E0001B68164A23F002031360154B1B68134A51
:1011F0004FF47A7101FB03F3536000BF0F4B1B6880
:1012000003F48033002BF9D00C4B00225A600B4BB7
:1012100000229A60094B1B68084A23F001031360FF
:10122000FB680133FB60FA687B689A42D1D300BF48
:1012300000BF1437BD4680BC704700BF10E000E01F
:101240001800002080B582B000AF0023FB710E4B68
:1012500000225A600C4B00229A600B4B1B680A4A12
:1012600023F001031360084B1B68074A23F00203B5
:101270001360064B1B689847034B1B680023FB71E8
:1012800000BF0837BD4680BD10E000E0D000002060
:10129000B0B584B000AF786039603B68594A93427A
:1012A0000BD1594A7B6814461D460FCD0FC42B68DD
:1012B00023600E210120FFF727FF3B68534A93422A
:1012C0000DD1514B7A6803F1140415460FCD0FC4AC
:1012D0002B68236011210020FFF716FF10E03B6808
:1012E0004B4A93420CD1484B7A6803F128041546C7
:1012F0000FCD0FC42B68236012210020FFF704FFDD
:101300003B68DB6843F400523B68DA603B68DB68AB
:101310007A6812781A433B68DA603B681B697A681E
:10132000127A1A433B681A613B68DB687A68527A22
:101330001A433B68DA603B68DB687A68927A1A4342
:101340003B68DA603B685B697A68D27A1A433B682B
:101350005A613B682B4A934203D1FFF7EDFDF860D9
:1013600002E0FFF7D5FDF8607B685B681B01FA6857
:10137000B2FBF3F31901FA6813469B0013449A0079
:101380001A447B685B689B00B2FBF3F27B685B6886
:101390001B01F868B0FBF3F3642000FB03F3D31ADE
:1013A0001B011C4AA2FB03235B0903F00F030B4341
:1013B000BB603B68BA689A607B681B7B002B1DD0C2
:1013C0003B68DB687A68127B1A433B68DA603B68EB
:1013D0000C4A934203D12520FFF720FD0EE03B6825
:1013E0000A4A934203D12620FFF718FD06E03B6826
:1013F000074A934202D12720FFF710FD00BF1037A4
:10140000BD46B0BD00380140D4000020004400407B
:10141000004800401F85EB5180B584B000AF786074
:101420007B682B4A934218D10623BB730123FB73BD
:101430004FF40073BB8107F10C0319462548FFF7F1
:1014400053FC1023BB734FF48063BB8107F10C0383
:1014500019462048FFF748FC36E07B681E4A934255
:1014600016D10623BB730123FB730423BB8107F151
:101470000C0319461748FFF737FC1023BB730823EA
:10148000BB8107F10C0319461248FFF72DFC1BE046
:101490007B68124A934217D10623BB730123FB7367
:1014A0004FF48063BB8107F10C0319460C48FFF72A
:1014B0001BFC1023BB734FF40063BB8107F10C03CB
:1014C00019460748FFF710FC00BF1037BD4680BD26
:1014D000003801400008014000440040004800403E
:1014E000000C014080B500AF024B1B69984700BF5C
:1014F00080BD00BFD400002080B500AF024B5B6A06
:10150000984700BF80BD00BFD400002080B500AF69
:10151000024B9B6B984700BF80BD00BFD4000020EA
:1015200080B596B000AF0023002200210120FFF714
:101530002BFD02210120FFF7E7FD0E210120FFF71F
:10154000E3FD4FF416537B64002387F84A300023F1
:1015500087F84930002387F84830002387F84B305C
:101560000C2387F8403000233B65002387F84C307C
:1015700007F1400315491846FFF78AFE1348FFF7A5
:101580004BFF07F1340300221A605A609A60FEF79D
:10159000EFFD0F48FEF7F8FFFFF7F0FD0C48FEF7F0
:1015A000E5FF01210A48FEF7FBFF0346A7F8563086
:1015B000B7F856301846FEF7AFFF0648FEF744FF6F
:1015C00041F28830FFF7FEFD00BFEAE70038014036
:1015D000002401401820000880B586B000AF786074
:1015E000144A154BD31A7B617B693B61134B1B6813
:1015F000002B02D1114B124A1A60104B1A687B68FB
:1016000013443A699A4207D200F052F903460C2279
:101610001A604FF0FF3309E0084B1B68FB60074B73
:101620001A687B681344054A1360FB68184618372C
:10163000BD4680BD005000200004000010010020C5
:10164000600200200D488546AFF300800C480D492C
:101650000D4A002302E0D458C4500433C4188C420D
:10166000F9D30A4A0A4C002301E013600432A24273
:10167000FBD300F023F9FFF753FFFEE700500020F3
:10168000000000206C000020582000086C000020A2
:101690005C020020FEE7000070B50F4E0C4631687A
:1016A000054611B900F0F4F830602146284600F0F4
:1016B000EFF8431C03D14FF0FF34204670BDC41C2B
:1016C00024F00304A042F8D0211A284600F0E0F8E4
:1016D0000130F2D1EFE700BF140100202DE9F843FB
:1016E000CD1C25F0030508350C2D38BF0C25002D29
:1016F000064601DBA94204D90C2333600020BDE873
:10170000F883DFF8D48000F069F8D8F800301C4680
:1017100044BB29463046FFF7BFFF431C044658D15F
:10172000D8F800402746002F43D1002C4BD0236827
:101730003946304604EB030900F0AAF8814542D14E
:10174000216830466D1A2946FFF7A6FF01303AD0CE
:1017500023682B442360D8F800305A6862BBC8F86D
:1017600000700FE02268521B20D40B2A17D9611990
:10177000A342256018BF5960636808BFC8F800100D
:1017800062514B60304600F02FF804F10B00231D2E
:1017900020F00700C21A1CBF1B1AA350AFE76268F3
:1017A000A3420CBFC8F800205A60EBE723466468E8
:1017B000AEE73C467F68B6E71A465B68A342FBD1BA
:1017C00000235360DEE70C233046336000F00CF852
:1017D00094E70560D6E700BF18010020014800F03B
:1017E00091B800BF58020020014800F08CB800BF3B
:1017F000580200202DE9F041804615460C4621B9DB
:101800001146BDE8F041FFF769BF2AB900F08AF838
:1018100000242046BDE8F08100F0CCF88542064661
:1018200002D8B5EB500FF4D829464046FFF756FFD3
:1018300007460028ECD0B5422A46214628BF32464A
:1018400000F062F82146404600F06CF83C46E0E7C4
:101850000EB46FF0004100B59CB01DAB0290069035
:10186000079104910848094953F8042B0591006831
:1018700002A9019300F002F90022029B1A701CB029
:101880005DF804EB03B070471C0000200802FFFF66
:1018900038B50023054D044608462B60FFF79CFE33
:1018A000431C02D12B6803B1236038BD54020020D1
:1018B000014B1868704700BF1C00002070B500265F
:1018C0000C4D0D4C641BA410A64209D100F08CFBFA
:1018D00000260A4D0A4C641BA410A64205D170BD17
:1018E00055F8043B98470136EEE755F8043B984716
:1018F0000136F2E750200008502000085020000870
:1019000054200008704770470A44914200F1FF33A9
:1019100000D1704710B511F8014B914203F8014F07
:10192000F9D110BD38B50546002940D051F8043C26
:101930000C1F002BB8BFE418FFF750FF1C4A1368B8
:1019400033B9636014602846BDE83840FFF74CBFE8
:10195000A34208D9206821188B4201BF19685B682F
:1019600009182160EDE71A465B680BB1A342FAD96A
:1019700011685018A0420BD12068014450188342CE
:101980001160E0D118685B68084410605360DAE7C2
:1019900002D90C232B60D6E7206821188B4201BFA7
:1019A00019685B680918216063605460CBE738BD33
:1019B0001801002051F8043C181F002BBCBF0B5825
:1019C000C01870472DE9F0471F468E688246BE4218
:1019D0000C4690460B682DD8B1F90C2012F4906F8C
:1019E00026D06569096905EB4505A3EB010905EBFF
:1019F000D5757B1C4B446D109D4238BF1D46530569
:101A000027D52946FFF76AFE064660B34A46216994
:101A1000FFF77AFFA38923F4906343F08003A38147
:101A200026614E4426603E466561A5EB0905A5602A
:101A3000BE4200D93E4632464146206800F0ACFA2C
:101A40000020A3689B1BA360236833442360BDE888
:101A5000F0872A46FFF7CEFE06460028E0D1504622
:101A60002169FFF75FFF0C23CAF80030A3894FF00C
:101A7000FF3043F04003A381E9E700002DE9F04F78
:101A800098468B8907461B060D4614469DB010D517
:101A90000B6973B94021FFF721FE2860286130B936
:101AA0000C233B604FF0FF301DB0BDE8F08F4023AA
:101AB0006B610023099320238DF8293030234FF0E8
:101AC0000109CDF80C80DFF898818DF82A30234683
:101AD0009A4613F8012B0AB1252AF9D1BAEB040B67
:101AE0000BD05B46224629463846FFF76BFF013094
:101AF00000F0A780099A5A4409929AF80030002B06
:101B000000F09F8000234FF0FF32CDE905230AF15A
:101B1000010A049307938DF853301A935446052213
:101B200014F8011B4E4800F051FA049AD8B9D006B7
:101B300044BF20238DF85330110744BF2B238DF869
:101B400053309AF800302A2B15D0544600204FF01D
:101B50000A0C079A214611F8013B303B092B4BD95F
:101B6000B0B1079214E0A0EB080309FA03F31343A2
:101B7000A2460493D2E7039B191D1B680391002B17
:101B8000BBBF5B4242F0020207930793B8BF0492C7
:101B900023782E2B0AD163782A2B32D1039B02346F
:101BA0001A1D1B68039243EAE3730593DFF8B4A0A0
:101BB00003225046217800F009FA38B14022049BF4
:101BC000A0EB0A00824013430134049314F8011B74
:101BD000062225488DF8281000F0F8F9002836D0A4
:101BE000224B1BBB039B073323F0070308330393EC
:101BF000099B334409936AE70C4601200CFB02322F
:101C0000A8E700234FF00A0C19460134059320463B
:101C100010F8012B303A092A03D9002BC6D00591C0
:101C2000C4E7044601230CFB0121F0E703AB00935A
:101C30002A4638460E4B04A9AFF30080421C0646E4
:101C4000D6D1AB895B063FF52DAF09982CE703ABE6
:101C500000932A463846064B04A900F07DF8EDE7CC
:101C60001B2000082120000825200008000000009B
:101C7000C51900082DE9F047164698468A680B6991
:101C800007469342B8BF1346336091F843200C4691
:101C9000DDF820900AB1013333602368990642BF12
:101CA000336802333360256815F0060506D104F168
:101CB000190AE36832689B1AAB422BDC94F8433074
:101CC0002268003B18BF0123920630D441463846B3
:101CD00004F14302C847013023D02368226903F08E
:101CE0000603042B14BF002533684FF0000608BF1D
:101CF000E56804F11A0408BFED1A54F8123C08BF55
:101D000025EAE5759342C4BF9B1AED18B5421AD176
:101D1000002008E00123524641463846C8470130BA
:101D200003D14FF0FF30BDE8F0870135C1E7302027
:101D3000E11881F843005A1C94F8451022440233FC
:101D400082F84310C2E70123224641463846C8477D
:101D50000130E6D00136D9E72DE9FF470F7E9146E5
:101D6000782F80460C469A460C9E01F1430207D814
:101D7000622F0AD8002F00F0D380582F00F0BA80CD
:101D800004F1420684F842703AE0A7F16303152B90
:101D9000F6D801A151F823F0F11D0008051E000836
:101DA000811D0008811D0008811D0008811D00089B
:101DB000051E0008811D0008811D0008811D000806
:101DC000811D0008071F00082F1E0008C11E000803
:101DD000811D0008811D0008291F0008811D0008C1
:101DE0002F1E0008811D0008811D0008C91E000863
:101DF00033681A1D1B68326004F1420684F84230D1
:101E000001239EE033682068191D3160060601D564
:101E10001D6803E04506FBD5B3F90050002D03DA39
:101E20002D236D4284F843300A23594811E021687C
:101E30003368080653F8045B02D4490648BFADB2C4
:101E40006F2F336014BF0A2308235148002184F800
:101E500043106668002EA8BF2168A660A4BF21F0C9
:101E6000040121600DB9002E4BD01646B5FBF3F1ED
:101E700003FB1157C75D06F8017D2F46BB420D4697
:101E8000F4D9082B0BD12368DF0708D523696168D3
:101E90009942DEBF302306F8013C06F1FF36921B63
:101EA00022614B4621464046CDF800A003AAFFF729
:101EB000E1FE01304AD14FF0FF3004B0BDE8F087B9
:101EC000236843F0200323607827324884F8457064
:101ED000236831681F0651F8045B02D45F0648BFCF
:101EE000ADB23160D90744BF43F0200323601DB178
:101EF0001023ABE72648E9E7236823F0200323609B
:101F0000F6E71646BDE733682568181D616930603D
:101F10002E061B6801D5196002E06806FBD5198002
:101F2000002316462361BCE7336800211A1D326086
:101F30001E686268304600F049F808B1801B606096
:101F400063682361002384F84330AAE73246494698
:101F500040462369D0470130ADD023689B0713D496
:101F6000E068039B9842B8BF1846A6E701233246B3
:101F700049464046D04701309DD00135E36803997A
:101F80005B1AAB42F2DCEBE7002504F11906F5E73A
:101F90002C2000083D200008884210B501EB020407
:101FA00002D98442234607D8431EA14208D011F823
:101FB000012B03F8012FF8E7014602448A4200D1C1
:101FC00010BD13F8014D02F8014DF7E7034610B5B7
:101FD000C9B202449342184601D1002003E00478BC
:101FE00001338C42F6D110BDF8B500BFF8BC08BC77
:101FF0009E467047F8B500BFF8BC08BC9E467047C7
:1020000025640000000000002D00000025732564F9
:102010002E25303264000000202000232D302B209C
:1020200000686C4C006566674546470030313233C6
:102030003435363738394142434445460030313231
:1020400033343536373839616263646566000000C1
:04205000550100082E
:04205400310100084E
:10205800000000000102030400000000000000006E
:1020680001020304060708090100000020000020FF
:10207800000000001C01002084010020EC01002069
:102088000000000000000000000000000000000048
:102098000000000000000000000000000000000038
:1020A8000000000000000000000000000000000028
:0C20B8000000000000000000000000001C
:040000050800164594
:00000001FF
