:020000040800F2
:1000000000500020BD2300080D2400080D24000826
:100010000D2400080D2400080D2400080000000035
:10002000000000000000000000000000D1100008E7
:100030000D24000800000000511300089913000867
:100040000D2400080D2400080D2400080D240008CC
:100050000D2400080D2400081119000835190008A6
:10006000591900087D190008A11900080D2400087D
:100070000D2400080D2400080D2400080D2400089C
:100080000D2400080D2400080D2400080D2400088C
:100090000D2400080D2400080D240008C5190008CF
:1000A0000D2400080D2400080D2400080D2400086C
:1000B0000D2400080D2400080D2400080D2400085C
:1000C0000D2400080D2400080D2400080D2400084C
:1000D0000D240008AD220008C1220008D522000826
:1000E000751A00080D240008000000000D24000807
:1000F0000D2400080D2400080D2400080D2400081C
:100100000D2400080D2400080D2400080D2400080B
:100110000D2400080D2400080D2400080D240008FB
:100120000D2400080D2400080D2400080D240008EB
:1001300010B5054C237833B9044B13B10448AFF321
:1001400000800123237010BD240000200000000067
:100150006824000808B5034B1BB103490348AFF3FB
:10016000008008BD0000000028000020682400086E
:10017000034613F8012B002AFBD1181A01387047E7
:1001800080B483B000AF78607B6803F108027B68BD
:100190005A607B684FF0FF329A607B6803F1080277
:1001A0007B68DA607B6803F108027B681A617B6810
:1001B00000221A6000BF0C37BD4680BC704780B477
:1001C00083B000AF78607B6800221A6100BF0C37F3
:1001D000BD4680BC704780B485B000AF78603960A0
:1001E0003B681B68BB60BB68B3F1FF3F03D17B6812
:1001F0001B69FB600CE07B680833FB6002E0FB6876
:100200005B68FB60FB685B681B68BA689A42F6D261
:10021000FB685A683B685A603B685B683A689A605A
:100220003B68FA689A60FB683A685A603B687A688B
:100230001A617B681B685A1C7B681A6000BF143700
:10024000BD4680BC704780B485B000AF78607B68E5
:100250001B69FB607B685B687A6892689A607B6860
:100260009B687A6852685A60FB685B687A689A4251
:1002700003D17B689A68FB685A607B6800221A6128
:10028000FB681B685A1EFB681A60FB681B681846EF
:100290001437BD4680BC704780B58EB004AFF8609F
:1002A000B9607A603B607B6B002B0BD14FF0500341
:1002B00083F31188BFF36F8FBFF34F8F3B6200BF93
:1002C00000BFFDE7BB6B002B0BD14FF0500383F356
:1002D0001188BFF36F8FBFF34F8FFB6100BF00BF6B
:1002E000FDE754237B617B69542B0BD04FF0500307
:1002F00083F31188BFF36F8FBFF34F8FBB6100BFD4
:1003000000BFFDE77B69BB6B002B1FD07B6B002B15
:100310001CD0BB6B7B6254220021786A02F077F814
:100320007B6A7A6B1A637B6A022283F8512000236E
:1003300003937B6A0293FB6B01933B6B00933B68D7
:100340007A68B968F86800F08FF801E000237B62F2
:100350007B6A18462837BD4680BD80B58AB004AF99
:10036000F860B9607A603B6000233B6107F11003DD
:100370000393BB6A02937B6A01933B6A00933B68D9
:100380007A68B968F868FFF787FF78617B69002BA6
:1003900002D0786900F0F0F83B6918461837BD467E
:1003A00080BD80B58AB004AFF860B9607A603B6008
:1003B0007B689B00184601F02BF838613B69002BE5
:1003C00013D0542001F024F878617B69002B08D009
:1003D00054220021786902F01AF87B693A691A639D
:1003E00005E0386901F046F901E000237B617B6993
:1003F000002B11D07B69002283F851200023039346
:100400007B6902937B6A01933B6A00933B687A683D
:10041000B968F86800F028F87B6918461837BD46B7
:1004200080BD80B588B002AFF860B9607A603B608B
:100430007B6A01933B6A00933B687A68B968F86805
:10044000FFF7AFFF38613B69002B05D0386900F03A
:1004500093F801237B6102E04FF0FF337B617B69FE
:1004600018461837BD4680BD80B588B000AFF8602B
:10047000B9607A603B603B6B1A6B7B6803F1804329
:10048000013B9B001344BB61BB6923F00703BB61C5
:10049000BB6903F00703002B0BD04FF0500383F32D
:1004A0001188BFF36F8FBFF34F8F7B6100BF00BF19
:1004B000FDE7BB68002B1ED00023FB6112E0BA6889
:1004C000FB69134419783A6BFB69134434330A46C9
:1004D0001A70BA68FB6913441B78002B06D0FB69BD
:1004E0000133FB61FB690F2BE9D900E000BF3B6BD7
:1004F000002283F84320BB6A062B0BD94FF0500330
:1005000083F31188BFF36F8FBFF34F8F3B6100BF41
:1005100000BFFDE7BB6A062B01D90623BB623B6B1C
:10052000BA6ADA623B6BBA6A5A643B6B04331846A8
:10053000FFF745FE3B6B18331846FFF740FE3B6B59
:100540003A6B1A61BB6AC3F107023B6B9A613B6B62
:100550003A6B5A623A68F968B86900F05BFD024686
:100560003B6B1A60FB6A002B02D0FB6A3A6B1A6085
:1005700000BF2037BD4680BD80B584B000AF786035
:1005800000F08AFE3F4B1B6801333E4A13603E4B2E
:100590001B68002B09D13C4A7B681360394B1B68F0
:1005A000012B10D100F0FCFB0DE0384B1B68002B39
:1005B00009D1354B1B68DA6A7B68DB6A9A4202D83C
:1005C000314A7B681360324B1B680133304A136039
:1005D0007B68DB6A01229A402E4B1B6813432D4A2D
:1005E00013607B68DA6A2C4913469B0013449B0016
:1005F0000B4404331B68FB607B68FA689A60FB68F5
:100600009A687B68DA60FB689B687A6804325A6093
:100610007B681A1DFB689A607B68DA6A13469B0048
:1006200013449B001C4A1A447B685A617B68DA6A4F
:10063000194913469B0013449B000B441B687A68BE
:10064000D26A591C144813469B0013449B00034470
:10065000196000F051FE0D4B1B68002B0ED00A4BA9
:100660001B68DA6A7B68DB6A9A4207D20B4B4FF051
:1006700080521A60BFF34F8FBFF36F8F00BF1037E8
:10068000BD4680BD40010020400000204C010020FC
:100690005C010020480100204400002004ED00E03F
:1006A00080B584B000AF78600023FB607B68002BCE
:1006B00018D000F0D1F8134B1B68012B0BD04FF072
:1006C000500383F31188BFF36F8FBFF34F8FBB606D
:1006D00000BF00BFFDE70021786800F019FC00F0C2
:1006E000C9F8F860FB68002B07D1074B4FF0805228
:1006F0001A60BFF34F8FBFF36F8F00BF1037BD4637
:1007000080BD00BF6801002004ED00E080B590B01E
:1007100004AF0123FB6200233B6200237B6213E0F2
:100720002B4A7B6A1344197807F110027B6A134441
:100730000A461A7007F110027B6A13441B78002BDB
:1007400006D07B6A01337B627B6A0F2BE8DD00E019
:1007500000BF0023BB6231E01E4B3B620023FB6005
:100760000023BB603A1D07F1080107F10C0318468E
:1007700001F0BAFD7868BB68FA6807F110010292CF
:1007800001930023009300230246386AFFF7E5FD3A
:1007900002461149BB6A41F823200F4ABB6A52F84E
:1007A0002330002B02D00123FB6201E00023FB6217
:1007B000FB6A002B06D0BB6A0133BB62BB6A002B0D
:1007C000CADD00E000BFFB6A18463037BD4680BD79
:1007D00080240008710D00086401002080B584B0F9
:1007E00000AFFFF793FFF860FB68012B16D14FF0C5
:1007F000500383F31188BFF36F8FBFF34F8FBB603C
:1008000000BF114B4FF0FF321A60104B01221A60EB
:100810000F4B00221A6000F081FC0FE0FB68B3F17F
:10082000FF3F0BD14FF0500383F31188BFF36F8F5D
:10083000BFF34F8F7B6000BF00BFFDE7054B1B6818
:1008400000BF1037BD4680BD600100204C01002074
:10085000440100200000002080B400AF044B1B685E
:100860000133034A136000BFBD4680BC704700BF20
:100870006801002080B588B000AF0023FB61002331
:10088000BB6100F009FD00233B61754B1B68002B29
:100890000BD14FF0500383F31188BFF36F8FBFF379
:1008A0004F8F3B6000BF00BFFDE76D4B1B68013BF6
:1008B0006B4A13606A4B1B68002B40F0CA80694B7F
:1008C0001B68002B00F0C5808EE0674BDB68DB689F
:1008D000FB61FB699B6AFB60FB69DB69FA69126A71
:1008E0009A60FB691B6AFA69D2695A60FB685A68A8
:1008F000FB6918339A4203D1FB691A6AFB685A6094
:10090000FB6900229A62FB681B685A1EFB681A602A
:10091000FB695B69BB60FB699B68FA69D2689A6096
:10092000FB69DB68FA6992685A60BB685A68FB69C0
:1009300004339A4203D1FB69DA68BB685A60FB69E9
:1009400000225A61BB681B685A1EBB681A60FB69AB
:10095000DB6A01229A40454B1B681343434A1360EC
:10096000FB69DA6A424913469B0013449B000B441F
:1009700004331B687B60FB697A689A607B689A68BD
:10098000FB69DA607B689B68FA6904325A60FB692C
:100990001A1D7B689A60FB69DA6A13469B00134450
:1009A0009B00334A1A44FB695A61FB69DA6A304991
:1009B00013469B0013449B000B441B68FA69D26AE0
:1009C000591C2B4813469B0013449B000344196099
:1009D000FB69DA6A274B1B68DB6A9A4204D9264A0C
:1009E0003B69012142F823101F4B1B68002B7FF449
:1009F0006CAFFB69002B01D000F070FA1F4B1B6835
:100A00007B617B69002B12D000F03CF80346002B81
:100A100004D0194A3B69012142F823107B69013B4C
:100A20007B617B69002BEFD1144B00221A60124AC4
:100A30003B6952F82330002B0BD00123BB610D4BD7
:100A40001B680F4B4FF080521A60BFF34F8FBFF3FC
:100A50006F8F00F051FCBB6918462037BD4680BD42
:100A60006801002040010020000100204801002012
:100A700044000020400000205401002050010020CC
:100A800004ED00E080B58AB000AF00237B627F4BAD
:100A90001B68002B40F0EF807D4B1B6801333B62ED
:100AA0007B4A3B6A13603B6A002B21D1794B1B6860
:100AB0001B68002B0BD04FF0500383F31188BFF35A
:100AC0006F8FBFF34F8F7B6000BF00BFFDE7714B9F
:100AD0001B68FB61704B1B686E4A13606E4AFB69B2
:100AE00013606E4B1B6801336C4A136000F0F6F91B
:100AF0006B4B1B683A6A9A42C0F0A880654B1B6832
:100B00001B68002B04D1664B4FF0FF321A609DE04A
:100B1000604B1B68DB68DB68BB61BB695B687B6142
:100B20003A6A7B699A4203D25D4A7B6913608DE021
:100B3000BB695B693B61BB699B68BA69D2689A60B3
:100B4000BB69DB68BA6992685A603B695A68BB69DD
:100B500004339A4203D1BB69DA683B695A60BB69C6
:100B600000225A613B691B685A1E3B691A60BB69C7
:100B70009B6A002B1ED0BB699B6AFB60BB69DB696B
:100B8000BA69126A9A60BB691B6ABA69D2695A600B
:100B9000FB685A68BB6918339A4203D1BB691A6A69
:100BA000FB685A60BB6900229A62FB681B685A1E88
:100BB000FB681A60BB69DB6A01229A40394B1B68EB
:100BC0001343384A1360BB69DA6A374913469B00FE
:100BD00013449B000B4404331B68BB60BB69BA68B9
:100BE0009A60BB689A68BB69DA60BB689B68BA693F
:100BF00004325A60BB691A1DBB689A60BB69DA6A25
:100C000013469B0013449B00274A1A44BB695A6150
:100C1000BB69DA6A244913469B0013449B000B44CA
:100C20001B68BA69D26A591C1F4813469B001344BB
:100C30009B0003441960BB69DA6A1C4B1B68DB6AC2
:100C40009A427FF65BAF01237B6257E7174B1B6825
:100C5000DA6A154913469B0013449B000B441B683A
:100C6000012B01D901237B62114B1B68002B07D09C
:100C700001237B6204E00F4B1B6801330D4A1360B4
:100C80007B6A18462837BD4680BD00BF680100203A
:100C900044010020F8000020FC0000205801002042
:100CA0006001002048010020440000204000002096
:100CB000540100205001002080B487B000AF274BC2
:100CC0001B68002B03D0264B01221A6041E0244B05
:100CD00000221A60234B1B68FB60FB68B3FA83F3A6
:100CE000FB72FB7AC3F11F037B611F497A691346CC
:100CF0009B0013449B000B441B68002B0BD14FF04F
:100D0000500383F31188BFF36F8FBFF34F8F7B6066
:100D100000BF00BFFDE77A6913469B0013449B00A8
:100D2000114A13443B613B695B685A683B695A60EE
:100D30003B695A683B6908339A4203D13B69DA68D8
:100D40003B695A603B695B68DB68084A1360074B84
:100D50001B6800BF1C37BD4680BC7047680100207F
:100D600054010020480100204400002040000020E1
:100D700080B582B000AF786000F052F8064B1B6877
:100D8000012BF9D9054B4FF080521A60BFF34F8FFA
:100D9000BFF36F8FF0E700BF4400002004ED00E0D8
:100DA00080B582B000AF00237B600CE07A68134608
:100DB0009B0013449B00124A13441846FFF7E0F9C6
:100DC0007B6801337B607B68062BEFD90D48FFF70A
:100DD000D7F90D48FFF7D4F90C48FFF7D1F90C48C3
:100DE000FFF7CEF90B48FFF7CBF90B4B054A1A601A
:100DF0000A4B054A1A6000BF0837BD4680BD00BFD8
:100E000044000020D0000020E40000200001002069
:100E1000140100202C010020F8000020FC0000201C
:100E200080B582B000AF19E000F036FA104BDB68F5
:100E3000DB687B607B6804331846FFF704FA0D4BD0
:100E40001B68013B0B4A13600B4B1B68013B0A4AB2
:100E5000136000F051FA786800F010F8064B1B6838
:100E6000002BE1D100BF00BF0837BD4680BD00BFE9
:100E700014010020400100202801002080B584B02A
:100E800000AF78607B6893F85130002B08D17B6805
:100E90001B6B184600F0EEFB786800F0EBFB19E0E6
:100EA0007B6893F85130012B03D1786800F0E2FBA6
:100EB00010E07B6893F85130022B0BD04FF05003B9
:100EC00083F31188BFF36F8FBFF34F8FFB6000BFB9
:100ED00000BFFDE700BF1037BD4680BD80B400AF46
:100EE000094B1B681B68002B04D1084B4FF0FF32E5
:100EF0001A6005E0044B1B68DB681B68034A13603B
:100F000000BFBD4680BC7047F80000206001002093
:100F100080B588B000AF78603960374B1B68FB61E3
:100F2000364B1B68BB61364B1B687B61354B1B68BE
:100F300004331846FFF787F90346002B0BD1314BDA
:100F40001B68DB6A012202FA03F3DA432E4B1B68AB
:100F500013402D4A13607B68B3F1FF3F24D13B68F7
:100F6000002B21D0294B5B683B61264B1B683A69FB
:100F70009A60244B1B683A699268DA60214B1A68C0
:100F80003B699B6804325A601E4B1B681A1D3B6903
:100F90009A601C4B1B681D4A5A611C4B1B6801332D
:100FA0001A4A136000BF22E0FA697B681344FB60B1
:100FB000144B1B68FA685A60FA68FB699A4207D2B8
:100FC000104B1B68043319467869FFF704F90EE0EB
:100FD0000C4B1B6804331946B869FFF7FCF80C4B3F
:100FE0001B68FA689A4202D2094AFB68136000BF84
:100FF0002037BD4680BD00BF44010020F80000201E
:10100000FC00002040000020480100202C010020AE
:101010006001002080B485B000AFF860B9607A60EC
:10102000FB68043BFB60FB684FF080721A60FB6852
:10103000043BFB60BB6823F00102FB681A60FB689D
:10104000043BFB60084AFB681A60FB68143BFB60CA
:101050007A68FB681A60FB68203BFB60FB681846F7
:101060001437BD4680BC70476D10000880B485B051
:1010700000AF00237B60124B1B68B3F1FF3F0BD026
:101080004FF0500383F31188BFF36F8FBFF34F8F7F
:10109000FB6000BF00BFFDE74FF0500383F31188F2
:1010A000BFF36F8FBFF34F8FBB6000BF00BF7B6884
:1010B000002BFCD000BF00BF1437BD4680BC70477A
:1010C00004000020000000000000000000000000FC
:1010D000074B19680868B0E8F00F80F30988BFF380
:1010E0006F8F4FF0000080F311884EF00D0E7047A7
:1010F0004000002000BF00BF06480068006880F381
:10110000088862B661B6BFF34F8FBFF36F8F00DF01
:1011100000BF000008ED00E000BF00BF80B58AB04E
:1011200000AF544B1B687B627B6A2C331B68524AAE
:1011300093420BD04FF0500383F31188BFF36F8FAE
:10114000BFF34F8FFB6100BF00BFFDE77B6A383301
:101150001B684A4A93420BD04FF0500383F3118827
:10116000BFF36F8FBFF34F8FBB6100BF00BFFDE7C1
:101170000023BB60424B3B623B6A1B78DBB2FB73D4
:101180003B6AFF221A703B6A1B78DBB2FB71FB796A
:10119000DBB203F05003DAB23A4B1A70394B1B78CA
:1011A000002B0BD14FF0500383F31188BFF36F8FE7
:1011B000BFF34F8F7B6100BF00BFFDE7FB79DBB260
:1011C000DB4303F05003002B13D04FF0500383F3A5
:1011D0001188BFF36F8FBFF34F8F3B6100BF00BF1C
:1011E000FDE7BB680133BB60FB79DBB25B00DBB2C0
:1011F000FB71FB79DBB203F08003802BF1D0BB687D
:10120000082B03D1204B00221A6004E0BB68C3F115
:1012100007031D4A13601C4B1B681B021A4A13600C
:10122000194B1B6803F4E063174A1360FB7BDAB2C7
:101230003B6A1A70154B1B68144A43F47F03136012
:10124000124B1B68114A43F07F431360104B00227E
:101250001A6000F0C3F80F4B00221A60FFF74CFF32
:10126000FFF72AFDFFF702FF002318462837BD4687
:1012700080BD00BF08ED00E0D11000085113000848
:1012800000E400E06C0100207001002020ED00E08F
:101290001CED00E00400002080B483B000AF4FF0EC
:1012A000500383F31188BFF36F8FBFF34F8F7B60C1
:1012B00000BF0F4B1B6801330D4A13600C4B1B68BA
:1012C000012B10D10B4B1B68DBB2002B0BD04FF066
:1012D000500383F31188BFF36F8FBFF34F8F3B60D1
:1012E00000BF00BFFDE700BF0C37BD4680BC7047A4
:1012F0000400002004ED00E080B483B000AF124B86
:101300001B68002B0BD14FF0500383F31188BFF300
:101310006F8FBFF34F8F7B6000BF00BFFDE70A4BAD
:101320001B68013B084A1360074B1B68002B05D163
:1013300000233B603B6883F3118800BF00BF0C377C
:10134000BD4680BC704700BF0400002000000000C4
:10135000EFF30980BFF36F8F0D4B1A6820E9F00F90
:1013600010602DE908404FF0500080F31188FFF71E
:10137000A3FC4FF0000080F31188BDE80840196815
:101380000868B0E8F00F80F30988BFF36F8F7047EB
:101390004000002000BF00BF80B582B000AF4FF01A
:1013A000500383F31188BFF36F8FBFF34F8F7B60C0
:1013B00000BFFFF767FB0346002B03D0064B4FF03F
:1013C00080521A6000233B603B6883F3118800BFA2
:1013D00000BF0837BD4680BD04ED00E080B400AF1B
:1013E000084B00221A60084B00221A60074B41F696
:1013F0003F721A60034B07221A6000BFBD4680BCD3
:10140000704700BF10E000E018E000E014E000E0EA
:1014100080B58EB000AF78600023FB627B68002B44
:1014200022D00823DB437A689A421BD808227B68C3
:1014300013447B607B6803F00703002B14D07B68A8
:1014400003F00703C3F10803BB62BB6ADB437A689E
:101450009A4204D87A68BB6A13447B6004E0002394
:101460007B6001E000237B60FFF7F6F97A4B1B6895
:10147000002B01D100F078F97B68002BC0F2D380FB
:101480007B68002B00F0CF80744B1B687A689A420F
:1014900000F2C980724B3B63714B1B687B637B6BB3
:1014A000704A934205D37B6B6F4A934201D8012364
:1014B00000E00023002B29D14FF0500383F3118863
:1014C000BFF36F8FBFF34F8F3B6200BF00BFFDE7DD
:1014D0007B6B3B637B6B1B687B637B6B614A9342DB
:1014E00005D37B6B604A934201D8012300E00023BF
:1014F000002B0BD14FF0500383F31188BFF36F8F94
:10150000BFF34F8FFB6100BF00BFFDE77B6B5B68E4
:101510007A689A4203D97B6B1B68002BD8D14E4B5B
:101520001B687A6B9A427ED03B6B1B68082213447F
:10153000FB62FB6A4B4A934205D3FB6A4A4A9342D9
:1015400001D8012300E00023002B0BD14FF0500302
:1015500083F31188BFF36F8FBFF34F8FBB6100BF61
:1015600000BFFDE77B6B1A683B6B1A607B6B5B68A7
:101570007A689A420BD94FF0500383F31188BFF376
:101580006F8FBFF34F8F7B6100BF00BFFDE77B6BA9
:101590005A687B68D21A08235B009A4224D97A6B76
:1015A0007B6813447B627B6A03F00703002B0BD03C
:1015B0004FF0500383F31188BFF36F8FBFF34F8F4A
:1015C0003B6100BF00BFFDE77B6B5A687B68D21AA6
:1015D0007B6A5A607B6B7A685A603B6B1A687B6ADD
:1015E0001A603B6B7A6A1A601C4B1A687B6B5B68EB
:1015F000D31A1A4A1360194B1A681C4B1B689A427B
:1016000003D2164B1B68194A13607B6B5B6843F06F
:1016100000427B6B5A607B6B00221A60144B1B6884
:101620000133134A1360FFF725F9FB6A03F0070340
:10163000002B0BD04FF0500383F31188BFF36F8F53
:10164000BFF34F8FFB6000BF00BFFDE7FB6A18468A
:101650003837BD4680BD00BF7C210020802100209E
:1016600074210020740100207321002084210020B7
:101670008821002080B588B000AF78607B68FB616E
:101680007B68002B64D008235B42FA691344FB613A
:10169000FB69BB61BB69304A934205D3BB692F4AE2
:1016A000934201D8012300E00023002B0BD14FF01F
:1016B000500383F31188BFF36F8FBFF34F8F7B61AC
:1016C00000BF00BFFDE7BB695B68002B0BDB4FF081
:1016D000500383F31188BFF36F8FBFF34F8F3B61CC
:1016E00000BF00BFFDE7BB691B68002B0BD04FF0AC
:1016F000500383F31188BFF36F8FBFF34F8FFB60ED
:1017000000BF00BFFDE7BB695B68DB0F03F00103AF
:10171000DBB2002B1CD0BB691B68002B18D1BB6946
:101720005B6823F00042BB695A60FFF795F8BB691C
:101730005A680B4B1B681344094A1360B86900F0E0
:101740006DF8084B1B680133064A1360FFF792F8E7
:1017500000BF2037BD4680BD7401002073210020EA
:10176000802100208C21002080B485B000AF4FF490
:101770000053BB60244BFB60FB6803F00703002BA6
:101780000CD0FB680733FB60FB6823F00703FB60AA
:10179000BA68FB68D31A1C4A1344BB60FB681B4A37
:1017A00013601A4B00225A60FA68BB6813447B60CE
:1017B00008227B689B1A7B607B6823F007037B60B1
:1017C0007B68134A1360124B1B6800225A60104B4F
:1017D0001B6800221A60FB683B603B687A68D21A7B
:1017E0003B685A600A4B1A683B681A603B685B6842
:1017F000084A13603B685B68074A136000BF1437F0
:10180000BD4680BC704700BF7401002074210020D9
:101810007C210020842100208021002080B487B01A
:1018200000AF7860364B7B6102E07B691B687B61AF
:101830007B691B687A689A42F7D87B69304A934281
:1018400018D07B692F4A934205D37B692E4A934275
:1018500001D8012300E00023002B0BD14FF05003EF
:1018600083F31188BFF36F8FBFF34F8FFB6000BF0F
:1018700000BFFDE77B693B617B695B683A691344A4
:101880007A689A4208D17B695A687B685B681A4417
:101890007B695A607B697B607B683B617B685B68C6
:1018A0003A691A447B691B689A4218D17B691A68A5
:1018B000164B1B689A420DD07B685A687B691B687F
:1018C0005B681A447B685A607B691B681A687B688E
:1018D0001A6008E00D4B1A687B681A6003E07B69A8
:1018E0001A687B681A607A697B689A4202D07B69C1
:1018F0007A681A6000BF1C37BD4680BC704700BFC5
:101900007421002074010020732100207C2100201C
:1019100080B500AF054B5B69044A43F00103536196
:10192000034B1B68984700BF80BD00BF0004014007
:101930009021002080B500AF054B5B69044A43F05D
:1019400002035361034B5B68984700BF80BD00BF33
:10195000000401409021002080B500AF054B5B6979
:10196000044A43F004035361034B9B68984700BF4C
:1019700080BD00BF000401409021002080B500AF71
:10198000054B5B69044A43F008035361034BDB6872
:10199000984700BF80BD00BF000401409021002097
:1019A00080B500AF054B5B69044A43F010035361F7
:1019B000034B1B69984700BF80BD00BF0004014076
:1019C0009021002080B500AF284B5B6903F0200315
:1019D000002B09D0254B5B69244A43F02003536157
:1019E000234B5B6998473EE0204B5B6903F0400363
:1019F000002B09D01D4B5B691C4A43F04003536127
:101A00001B4B9B6998472EE0184B5B6903F08003E2
:101A1000002B09D0154B5B69144A43F080035361D6
:101A2000134BDB6998471EE0104B5B6903F480732E
:101A3000002B09D00D4B5B690C4A43F48073536152
:101A40000B4B1B6A98470EE0084B5B6903F400736D
:101A5000002B08D0054B5B69044A43F400735361C3
:101A6000034B5B6A984700BF80BD00BF0004014084
:101A70009021002080B500AF304B5B6903F4806398
:101A8000002B09D02D4B5B692C4A43F480635361D2
:101A90002B4B9B6A98474EE0284B5B6903F400632D
:101AA000002B09D0254B5B69244A43F40063536142
:101AB000234BDB6A98473EE0204B5B6903F480537D
:101AC000002B09D01D4B5B691C4A43F480535361C2
:101AD0001B4B1B6B98472EE0184B5B6903F40053BC
:101AE000002B09D0154B5B69144A43F40053536132
:101AF000134B5B6B98471EE0104B5B6903F480430C
:101B0000002B09D00D4B5B690C4A43F480435361B1
:101B10000B4B9B6B98470EE0084B5B6903F400434B
:101B2000002B08D0054B5B69044A43F40043536122
:101B3000034BDB6B984700BF80BD00BF0004014032
:101B40009021002080B485B000AF0346FB800023C5
:101B5000FB73FB88B3F5004F00F0B880B3F5004F7E
:101B600000F3B780B3F5804F00F0AD80B3F5804F40
:101B700000F3AF80B3F5005F00F0A280B3F5005F23
:101B800000F3A780B3F5805F00F09780B3F5805F26
:101B900000F39F80B3F5006F00F08C80B3F5006F09
:101BA00000F39780B3F5806F00F08180B3F5806F0C
:101BB00000F38F80B3F5007F76D0B3F5007F00F39C
:101BC0008880B3F5807F6CD0B3F5807F00F381808F
:101BD000802B63D0802B7CDC202B47DC002B78DD36
:101BE000013B1F2B75D801A252F823F0731C00088B
:101BF000791C0008D31C00087F1C0008D31C0008B7
:101C0000D31C0008D31C0008851C0008D31C000846
:101C1000D31C0008D31C0008D31C0008D31C0008E8
:101C2000D31C0008D31C00088B1C0008D31C000820
:101C3000D31C0008D31C0008D31C0008D31C0008C8
:101C4000D31C0008D31C0008D31C0008D31C0008B8
:101C5000D31C0008D31C0008D31C0008D31C0008A8
:101C6000D31C0008D31C0008911C0008402B12D084
:101C70002FE00023FB732CE00423FB7329E00823EF
:101C8000FB7326E00C23FB7323E01023FB7320E09F
:101C90001423FB731DE01823FB731AE01C23FB7352
:101CA00017E00023FB7314E00423FB7311E0082307
:101CB000FB730EE00C23FB730BE01023FB7308E0B7
:101CC0001423FB7305E01823FB7302E01C23FB7352
:101CD00000BFFB7B18461437BD4680BC704700BF71
:101CE00080B586B000AF7860396000233B613B6807
:101CF0001B88FF2B01D87B6801E07B6804333B61C4
:101D00003B681B881846FFF71DFF0346FB733B69C2
:101D10001B68FA7B0F2101FA02F2D2431A403B6999
:101D20001A600023FB753B689B78072B0BD03B6840
:101D30009B78062B07D03B689B78042B03D03B682D
:101D40009B78052B0ED13B689B78043B9B005AB2D5
:101D50003B68DB785BB213435BB2DBB203F00F038B
:101D6000FB752CE03B689B78012B03D03B689B788C
:101D7000002B07D13B689B789B00DBB203F00F037D
:101D8000FB751CE03B689B78102B02D10423FB758C
:101D900015E00823FB753B689B78022B07D17B6815
:101DA000DB683A6812881A437B68DA6007E07B6870
:101DB000DB683A681288D2431A407B68DA603B6974
:101DC0001B68F97DFA7B01FA02F21A433B691A603B
:101DD00000BF1837BD4680BD80B483B000AF034656
:101DE000FB71FB791F2B09D80F4B1A68FB79012176
:101DF00001FA03F30C4913430B600FE0FB791F2B2F
:101E00000CD9FB793B2B09D8084B1A68FB79203B8E
:101E1000012101FA03F3054913430B6000BF0C379E
:101E2000BD4680BC704700BF00E100E004E100E077
:101E300080B483B000AF224B5B689B08DBB203F039
:101E40000303FB701F4B7B60FB78022B0CD0022B33
:101E500030DC002B02D0012B03D02BE0194B7B6030
:101E600028E0184B7B6025E0154B5B681B0CDBB250
:101E700003F00103BB70BB78002B0AD0104B5B68EA
:101E800003F40033012B01D10F4B00E00D4B7B60BD
:101E900001E00D4B7B600A4B5B689B0C9BB203F02F
:101EA0000F033B803B8802331A467B6802FB03F337
:101EB0007B6000BF7B6818460C37BD4680BC70470E
:101EC0000010024000127A0000093D0080B500AF0A
:101ED00000F024F80246054B5B681B0A03F0070379
:101EE0000349CB5C22FA03F3184680BD0010024080
:101EF0000800002080B500AF00F010F80246054B46
:101F00005B68DB0A03F007030349CB5C22FA03F3A7
:101F1000184680BD001002400800002080B500AFC8
:101F2000FFF786FF0246054B5B681B0903F00F03B2
:101F30000349CB5C22FA03F3184680BD001002402F
:101F40001000002080B483B000AF03460A46FB7146
:101F50001346BB71FB79022B1CD0022B25DC002B16
:101F600002D0012B0BD020E0124BDB69BA790121A2
:101F700001FA02F211460F4A0B43D36115E00D4BF3
:101F80009B69BA79012101FA02F21146094A0B4311
:101F900093610AE0074B5B69BA79012101FA02F209
:101FA0001146044A0B43536100BF00BF0C37BD46C6
:101FB00080BC704700100240B0B584B000AF7860BC
:101FC00039603B68594A93420BD1594A7B681446A1
:101FD0001D460FCD0FC42B6823600E210120FFF793
:101FE000B1FF3B68534A93420DD1514B7A6803F1DC
:101FF000140415460FCD0FC42B6823601121002057
:10200000FFF7A0FF10E03B684B4A93420CD1484BCE
:102010007A6803F1280415460FCD0FC42B6823609E
:1020200012210020FFF78EFF3B68DB6843F400526B
:102030003B68DA603B68DB687A6812781A433B6871
:10204000DA603B681B697A68127A1A433B681A6146
:102050003B68DB687A68527A1A433B68DA603B680F
:10206000DB687A68927A1A433B68DA603B685B699E
:102070007A68D27A1A433B685A613B682B4A93428A
:1020800003D1FFF737FFF86002E0FFF71FFFF860AA
:102090007B685B681B01FA68B2FBF3F31901FA680D
:1020A00013469B0013449A001A447B685B689B00AC
:1020B000B2FBF3F27B685B681B01F868B0FBF3F3DB
:1020C000642000FB03F3D31A1B011C4AA2FB032369
:1020D0005B0903F00F030B43BB603B68BA689A606F
:1020E0007B681B7B002B1DD03B68DB687A68127B0A
:1020F0001A433B68DA603B680C4A934203D12520BF
:10210000FFF76AFE0EE03B680A4A934203D126209D
:10211000FFF762FE06E03B68074A934202D12720A0
:10212000FFF75AFE00BF1037BD46B0BD0038014072
:10213000D021002000440040004800401F85EB51A2
:1021400080B584B000AF78607B682B4A934218D189
:102150000623BB730123FB734FF40073BB8107F1AC
:102160000C0319462548FFF7BBFD1023BB734FF442
:102170008063BB8107F10C0319462048FFF7B0FDCF
:1021800036E07B681E4A934216D10623BB730123B7
:10219000FB730423BB8107F10C0319461748FFF7B3
:1021A0009FFD1023BB730823BB8107F10C03194665
:1021B0001248FFF795FD1BE07B68124A934217D146
:1021C0000623BB730123FB734FF48063BB8107F1CC
:1021D0000C0319460C48FFF783FD1023BB734FF423
:1021E0000063BB8107F10C0319460748FFF778FD30
:1021F00000BF1037BD4680BD0038014000080140D7
:102200000044004000480040000C014080B487B00A
:1022100000AFF860B9601346FB710023FB75FB68E3
:10222000104A934207D0FB680F4A934201D1012321
:1022300002E0022300E00023FB75FB79002B06D1AE
:1022400000BFFB681B6803F08003002BF9D0BB685C
:102250001B88DAB2FB685A6000BF1C37BD4680BCE1
:10226000704700BF003801400044004080B584B092
:1022700000AF786039603868FDF77AFFB8600023F6
:10228000FB600AE03A68FB6813440022194678684C
:10229000FFF7BCFFFB680133FB60FA68BB689A423A
:1022A000F0D300BF00BF1037BD4680BD80B500AF82
:1022B000024B1B69984700BF80BD00BFD0210020A2
:1022C00080B500AF024B5B6A984700BF80BD00BF7E
:1022D000D021002080B500AF024B9B6B984700BF18
:1022E00080BD00BFD021002080B485B000AFF86071
:1022F000B9607A60FB68064A1A60BB68054A1A60D2
:102300007B6880221A6000BF1437BD4680BC7047CE
:102310000C2200206022002080B582B000AF7860DF
:10232000054B1B6819460548FFF7A0FF0520FEF77F
:10233000B7F900BFF4E700BF2000002000380140DB
:1023400080B588B002AF02210120FFF7FBFD032119
:102350000120FFF7F7FD0E210120FFF7F3FD4FF4F9
:10236000E133BB600023BB7300237B7300233B730B
:102370000023FB730C233B7100237B6100233B7420
:102380003B1D0B491846FFF717FE0948FFF7D8FE1B
:10239000002301930123009300234FF48072054929
:1023A0000548FEF73EF8FEF719FA00BFFDE700BF4B
:1023B00000380140A0240008192300080D48854674
:1023C000AFF300800C480D490D4A002302E0D458B9
:1023D000C4500433C4188C42F9D30A4A0A4C00236F
:1023E00001E013600432A242FBD300F019F8FFF7BA
:1023F000A7FFFEE70050002000000020240000207E
:10240000BC2400082400002060240020FEE70346CE
:102410000244934200D1704703F8011BF9E7000022
:1024200070B500260C4D0D4C641BA410A64209D1BA
:1024300000F01AF800260A4D0A4C641BA410A642AC
:1024400005D170BD55F8043B98470136EEE755F8C5
:10245000043B98470136F2E7B4240008B42400088E
:10246000B4240008B8240008F8B500BFF8BC08BCC4
:102470009E467047F8B500BFF8BC08BC9E46704742
:1024800049444C45000000005461736B2063726541
:102490006174696F6E206661696C65640A00000092
:0C24A000554152545F5461736B00000002
:0824AC00C4DCFF7F0100000009
:0424B40055010008C6
:0424B80031010008E6
:1024BC0006000000AAAAAAAA000000000102030458
:1024CC0000000000000000000102030406070809D8
:0424DC008824000848
:04000005080023BD0F
:00000001FF
